:100000000C942A000C9447000C9447000C94470071
:100010000C9447000C9447000C9447000C94531127
:100020000C9447000C9447000C9447000C94470034
:100030000C9447000C9447000C9447000C94470024
:100040000C9447000C9447000C9447000C94470014
:100050000C94470011241FBECFE5D8E0DEBFCDBF12
:1000600010E0A0E6B0E0E6EBF8E202C005900D92E9
:10007000AE3CB107D9F725E0AEECB0E001C01D926F
:10008000AC33B207E1F70E94F6130C9459140C94A8
:10009000000065E080E00E94481385E090E00E9447
:1000A000E204F7CFCF93DF93CDB7DEB72B970FB630
:1000B000F894DEBF0FBECDBF8BE0EBE6F0E0DE01D3
:1000C000119601900D928A95E1F78091D0008B30C6
:1000D00068F491E0980F9093D000E1E0F0E0EC0F2D
:1000E000FD1FE80FF11D80810E942E1285E090E037
:1000F0000E94E204EACF8091CF0091E0980F9093A4
:10010000CF000E9466128091CF008A3010F01092CA
:10011000CF0085E090E00E94E204EDCF8091CE0018
:1001200091E0980F9093CE000E948F128091CE00A4
:100130008A3010F01092CE0082E390E00E94E20438
:10014000EDCFE091F700F091F8008081811103C0BC
:100150008FEF9FEF09C0E091F700F091F800058064
:10016000F681E02D808191819093D7008093D60015
:1001700008950F931F93CF93DF93EC010091DF005D
:100180001091E0008091D1009091D20002960E94DF
:10019000D70FC00FD11FE091D100F091D200D383CF
:1001A000C2836091D1007091D200C017D10760F472
:1001B0008091F5009091F6006E5F7F4FDF91CF91B7
:1001C0001F910F910C949F0F8091F7009091F80070
:1001D0006E5F7F4F0E949F0F8091D6009091D70055
:1001E000C817D90720F4D093D700C093D600DF9169
:1001F000CF911F910F9108958091E2008823E1F340
:100200000FB6F8940F92E091E800F091E900C681F2
:10021000D781CE0102960E94D70F8091E1008150D4
:100220008093E1008091E20081508093E2000F9082
:100230000FBE8F89988D0E948A11CE010E948A116B
:10024000DBCF4F925F926F927F928F929F92AF928D
:10025000BF92CF92DF92EF92FF920F931F93CF93B3
:10026000DF934C016B015A012901CA010E9456110A
:100270003C01892B09F4E5C086E290E00E9456110A
:10028000EC01892BB1F086E2DE011D928A95E9F737
:10029000788E6F8AB1E0AB1AB108A60CB71CC114F6
:1002A000D104C1F0BE01675E7F4FF601C60108961A
:1002B00007C0C3010E948A11C4C08E179F0749F06E
:1002C0009F014191DB014D93BD01D9012C91211179
:1002D000F4CF18A2053008F004E00E8B6E01B2E0F6
:1002E000CB0ED11CC6010E947A0FCE010C960E9443
:1002F0007A0FD987C88785E090E0801B91099D8798
:100300008C87DB8BCA8BA201B401C5010E94FB0F55
:1003100099838883E114F10419F0F701D183C08334
:100320000FB6F8940F928091E1008F5F8093E10007
:100330008091D1009091D200892B99F5D093D20071
:10034000C093D1008091E1008130D9F50BE011E03C
:1003500088E3E82E81E0F82EC8010E946C0F075F49
:100360001F4FE016F106C1F782E091E00E946C0F8A
:1003700089EF90E00E946C0F8CEE90E00E946C0F71
:1003800083EE90E00E946C0F82E091E09093F80081
:100390008093F70089EF90E09093F6008093F5004A
:1003A00010C08091DD0081110CC0E091D100F0916E
:1003B000D20096898E89891720F0D093D200C093FD
:1003C000D1008091D8008F5F8093D800EE89809112
:1003D000DE008E1710F4E093DE0089E08E9FF001BE
:1003E0001124E55FFE4F0180F281E02DFD83EC8357
:1003F000248135813F832E83A481B5811396DC92BD
:10040000CE921297D582C482EE898E9FF00111247C
:10041000E55FFE4FFB87EA8780818F5F80830F90C7
:100420000FBE8091DD00882351F0E091D100F09162
:10043000D20096898E89981710F40E949E1081E050
:1004400001C08FEFDF91CF911F910F91FF90EF903F
:10045000DF90CF90BF90AF909F908F907F906F90E4
:100460005F904F9008950F931F93CF93DF93EC010C
:100470000FB6F8940F92892B21F4C091D100D0913E
:10048000D2008E010E5F1F4FC8010E94D70F8C89CA
:100490009D89892B21F0CE010C960E94D70F809167
:1004A000D8008F5F8093D8008091D1009091D200C6
:1004B000C817D90759F4B80183EE90E00E947E0F67
:1004C0008091E2008F5F8093E20007C08091E1009D
:1004D00081508093E1000E94A1000F900FBE809197
:1004E000D1009091D200C817D90739F08F89988D23
:1004F0000E948A11CE010E948A118091DD0088231A
:1005000049F08091D1009091D200C817D90711F419
:100510000E949E10DF91CF911F910F910895EF924D
:10052000FF920F9384EDE82E80E0F82E00E020E0AB
:1005300030E045E550E068EC70E08CEF90E00E9420
:100540002101813079F4F8942FEF3FEF3093D700F9
:100550002093D6008093DD001092E0001092DF001F
:100560000E946710809160000F91FF90EF900895B6
:10057000F8941092DD000C949D108091D3008F5F51
:100580008093D30008950FB6F8940F928091DF0006
:100590009091E0000F900FBE08958091DF00909140
:1005A000E00008958091E1000895009721F4809182
:1005B000D1009091D20049960895CF92DF92EF92A8
:1005C000FF920F931F93CF93DF938091D3008111FC
:1005D000E2C0C091DF00D091E0006E018FEFC81A39
:1005E000D80AD092E000C092DF00C114D104B9F45F
:1005F0008091F7009091F8002091F5003091F6007D
:100600003093F8002093F7009093F6008093F50064
:100610008091D9008F5F8093D9000E94A1008091C2
:10062000D6009091D700C816D90608F49EC080E085
:1006300069E0E091F700F091F8009081911103C01A
:100640002FEF3FEF0FC0E091F700F091F800058029
:10065000F681E02D0680F781E02D22813381C216DC
:10066000D30628F43093D7002093D6007FC0C285EC
:10067000D3852481358146815781D90115965C93B4
:100680004E93149746815781DA0113963C932E932B
:1006900012979F012E5F3F4F09811A81021713079E
:1006A00011F45A8349831386128698819150988356
:1006B000A489B5891097F9F0468557850089118975
:1006C000EA011D830C8300891189E8015B834A8359
:1006D0001196ED90FC901297AF01445F5F4FE416C6
:1006E000F50621F412961C930E931197158A148A1D
:1006F0009C9191509C93A6899091DE009A1710F4DA
:10070000A093DE006A9FD0011124A55FBE4F119611
:100710000D90BC91A02DB583A48314964D915C914E
:1007200015975783468314964D915C911597EA016E
:100730003B832A8315963C932E931497A6896A9F30
:10074000D0011124A55FBE4FB387A2879C919F5F04
:100750009C93A091D100B091D200268956969C918D
:10076000921708F066CF81E064CF80E0E091D1007D
:10077000F091D200E689D9E0ED9FF0011124E55F08
:10078000FE4F9081923008F081E09091DA00992339
:1007900061F081E00AC08091DB009091DC0001965D
:1007A0009093DC008093DB0080E0DF91CF911F917C
:1007B0000F91FF90EF90DF90CF900895EF92FF920E
:1007C0000F931F93CF93DF930FB6F8940F928091FE
:1007D000D30081508093D3008091D300882311F0FF
:1007E00080E0B0C08091E1008823D1F3E090F10077
:1007F000F090F200E0E0F0E039E041E08091EC00C0
:10080000882309F481C0D7011696ED91FC911797C2
:10081000A489B5896685778580899189EB019D8357
:100820008C8380899189EC017B836A83BF01645F3B
:100830007F4F11960D911C9112970617170721F4FF
:1008400012969C938E931197158A148A8C918150DD
:100850008C93A285B3858481958166817781EC0133
:100860007D836C8366817781EB019B838A83CF01D3
:10087000029611960D911C9112970817190721F4F1
:1008800012967C936E931197138612862C912150A9
:100890002C93A6892091DE002A1710F4A093DE0085
:1008A0003A9FD0011124A55FBE4F11960D90BC91C7
:1008B000A02DB583A48314966D917C9115977783B1
:1008C000668314966D917C911597EB019B838A83C7
:1008D00015969C938E931497A6893A9FD001112464
:1008E000A55FBE4FB387A2878C918F5F8C93A09139
:1008F000D100B091D200968956968C91981708F441
:100900007DCF4093DA007ACFEF2B11F00E94A10047
:10091000C091DB00D091DC00209761F011E00E94D3
:10092000DD0281111093DA002197C9F71092DC00E3
:100930001092DB008091DA00882309F451CF0E94E5
:100940009E1081E00F900FBEDF91CF911F910F910C
:10095000FF90EF9008950F931F93CF93DF938C0137
:10096000EB010E94BD022091DF003091E000F80110
:1009700040815181CA018C0F9D1F2417350728F42F
:100980008417950748F4C1E004C0C1E084179507B7
:1009900020F02817390708F0C0E0F8019183808320
:1009A000CC2321F0821B930B0E94B9000E94DE032E
:1009B000811102C00E949E108C2FDF91CF911F9158
:1009C0000F910895CF93DF93EC01892B19F40E94C6
:1009D0009E1009C00E94BD02CE010E94B9000E9473
:1009E000DE038823A1F3DF91CF910895CF93DF93A6
:1009F000EC010E94BD020FB6F8940F928091DB00CB
:100A00009091DC00C80FD91FD093DC00C093DB00AD
:100A10000F900FBEDF91CF910C94DE038091D30035
:100A2000882321F081E08093DA0008951092DA00A3
:100A30008091DE0069E0482F50E0649F9001659F3F
:100A4000300D1124F901E55FFE4F9081911102C034
:100A50008150F1CFA181B28112960D90BC91A02D51
:100A6000B283A183225F3E4FA217B30731F41296DF
:100A70002D913C9113973283218399E0949FF0014B
:100A8000959FF00D1124E55FFE4F0180F281E02D6E
:100A9000268137813093D2002093D1008093DE00ED
:100AA0000895CF93DF93EB016091D1007091D20054
:100AB000645F7F4F0E949F0FCE01DF91CF910C9416
:100AC000B900CF93DF93FC01A091D100B091D20087
:100AD00070681D967C936E931C97A181B281C09122
:100AE000D100D091D200BF87AE87C091D100D09104
:100AF000D20014968D919C911597998B888B20919B
:100B0000D1003091D2001496CD91DC911597245FDD
:100B10003F4F3B832A832091D1003091D200245F44
:100B20003F4F15963C932E931497A091D100B0910E
:100B3000D2005596FC93EE93549790819F5F9083DB
:100B4000CA01DF91CF910C94B900CF93DF93DC0100
:100B50001596ED91FC9116970680F781E02DA489FA
:100B6000B5898685978520893189EC013D832C8361
:100B7000C089D1899B838A83CF010C9611962D91D0
:100B80003C9112972817390721F41296DC93CE93E3
:100B90001197158A148A2C9121502C932091D300FF
:100BA00021114FC0A285B38584819581268137812B
:100BB000EC013D832C83C681D7819B838A839F016F
:100BC0002E5F3F4F11968D919C911297821793073C
:100BD00021F41296DC93CE931197138612868C9192
:100BE00081508C93A6898091DE008A1710F4A0931F
:100BF000DE0089E08A9FD0011124A55FBE4F1196C7
:100C00000D90BC91A02DB583A48314964D915C9159
:100C10001597578346831496CD91DC9115973B83A6
:100C20002A8315963C932E931497A6898A9FD00108
:100C30001124A55FBE4FB387A2878C918F5F8C93E1
:100C40001FC0A091ED00B091EE00B787A687149663
:100C50002D913C911597318B208B1496CD91DC9181
:100C600015979B838A8315969C938E9314978CEE8D
:100C700090E0958B848B8091EC008F5F8093EC00EB
:100C8000A091D100B091D200968956968C91891787
:100C900020F481E08093DA0001C080E0DF91CF9101
:100CA0000895CF93DF93DC01706811967C936E9367
:100CB0001696ED91FC91179718964D915C911997A6
:100CC00012962D913C91139714968D919C911597A6
:100CD000E9019D838C8314968D919C911597EC016D
:100CE0003B832A83EA0129813A81A217B30711F4D1
:100CF0009A83898319961C921E921897DA018C9117
:100D000081508C93A285B38584819581268137811A
:100D1000EC013D832C83C681D7819B838A839F010D
:100D20002E5F3F4F11968D919C91129782179307DA
:100D300021F41296DC93CE931197138612868C9130
:100D400081508C93A6898091DE008A1710F4A093BD
:100D5000DE0089E08A9FD0011124A55FBE4F119665
:100D60000D90BC91A02DB583A48314964D915C91F8
:100D70001597578346831496CD91DC9115973B8345
:100D80002A8315963C932E931497A6898A9FD001A7
:100D90001124A55FBE4FB387A2878C918F5F8C9380
:100DA000A091D100B091D200968956968C91891766
:100DB00018F481E08093DA00DF91CF9108950FB6A7
:100DC000F8940F922091D900FC0120832091DF003C
:100DD0003091E000328321830F900FBE089520915F
:100DE000D900FC0120832091DF003091E0003283A4
:100DF000218308950FB6F8940F922091DF0030916F
:100E0000E000DC0111964D915C911297E091D900C0
:100E1000FC91FE1741F02417350728F0FB011182E1
:100E2000108281E010C0241B350BDB014D915C91D9
:100E30002417350798F7FB01421B530B518340835E
:100E40000E94EF0680E00F900FBE089581E080932E
:100E5000DA0008958091D1009091D2000895E09138
:100E6000D100F091D20084859585E091D100F09178
:100E7000D200A091D100B091D20056964C9125E0BD
:100E800030E0241B3109358724870895CF92DF9203
:100E9000EF92FF920F931F93CF93DF93F62E0FB62F
:100EA000F8940F92E091D100F091D200C82FD0E0D9
:100EB0008E01000F111F000F111FE00FF11F81A104
:100EC00092A1A3A1B4A1892B8A2B8B2B81F4E09151
:100ED000D100F091D200EC0FFD1F81E085A34115F8
:100EE000510529F0CA010E94B9000E949E100F907E
:100EF0000FBE0FB6F8940F92E091D100F091D2009E
:100F0000E00FF11F61A172A183A194A16115710588
:100F100081059105C9F02091D1003091D200F901ED
:100F2000E00FF11FFF2029F011A212A213A214A2B8
:100F30000BC06B017C0121E0C21AD108E108F10865
:100F4000C1A2D2A2E3A2F4A22091D1003091D2009A
:100F5000C20FD31F1DA20F900FBEDF91CF911F9123
:100F60000F91FF90EF90DF90CF9008958F929F9216
:100F7000AF92BF92CF92DF92EF92FF920F931F93A7
:100F8000CF93DF93480159010FB6F8940F92E09187
:100F9000D100F091D200C82FD0E0EC0FFD1F85A149
:100FA000823059F1E091D100F091D200CE01880F4A
:100FB000991F880F991FE80FF91F81A192A1A3A182
:100FC000B4A14095509560957095482359236A23A4
:100FD0007B2341A352A363A374A3E091D100F091BA
:100FE000D200EC0FFD1F81E085A3C114D10429F0CC
:100FF000C6010E94B9000E949E100F900FBE0FB64E
:10100000F8940F92E114F104A1F0E091D100F09175
:10101000D200CE01880F991F880F991FE80FF91F82
:1010200081A192A1A3A1B4A1F70180839183A2839E
:10103000B383E091D100F091D200EC0FFD1F85A1A8
:101040008230E9F4E091D100F091D200CE01880F16
:10105000991F880F991FE80FF91F81A192A1A3A1E1
:10106000B4A180949094A094B09488229922AA224A
:10107000BB2281A292A2A3A2B4A281E001C080E01F
:101080002091D1003091D200C20FD31F1DA20F902A
:101090000FBEDF91CF911F910F91FF90EF90DF90E6
:1010A000CF90BF90AF909F908F9008958F929F9216
:1010B000AF92BF92CF92DF92EF92FF920F931F9366
:1010C000CF93DF93DC010FB6F8940F9270E0E11438
:1010D000F10481F0FB01EE0FFF1FEE0FFF1FE80F81
:1010E000F91F81A092A0A3A0B4A0E70188829982F1
:1010F000AA82BB82FD01E60FF71F85A192E095A3AE
:1011000002301105E9F0A8F401301105D9F5660F98
:10111000771F660F771FFD01E60FF71FC1A0D2A052
:10112000E3A0F4A0BA01A9014C295D296E297F2909
:1011300016C003301105D9F004301105A9F022C002
:10114000660F771F660F771FFD01E60FF71F41A19E
:1011500052A163A174A14F5F5F4F6F4F7F4F41A3B7
:1011600052A363A374A30EC0823009F472C0660F49
:10117000771F660F771FFD01E60FF71F21A332A32C
:1011800043A354A3813009F062C01A96ED91FC91FB
:101190001B9714968D919C91159716962D913C91C5
:1011A0001797EC013D832C831696CD91DC91179710
:1011B0009B838A839D012E5F3F4F8181928182179D
:1011C000930711F4D283C1831B961C921E921A9727
:1011D0008081815080835696EC9156978091DE00F5
:1011E0008E1710F4E093DE0089E08E9FF001112449
:1011F000E55FFE4F0180F281E02D1596FC93EE93A2
:1012000014974481558117965C934E931697C48129
:10121000D5813B832A83358324835696EC91569758
:101220008E9FF0011124E55FFE4F1B96FC93EE9319
:101230001A9780818F5F8083E091D100F091D20076
:1012400056969C918689891710F40E949E1081E021
:1012500001C080E00F900FBEDF91CF911F910F91E1
:10126000FF90EF90DF90CF90BF90AF909F908F90C6
:1012700008958F929F92AF92BF92CF92DF92EF929A
:10128000FF920F931F93CF93DF93DC0170E0E11483
:10129000F10481F0FB01EE0FFF1FEE0FFF1FE80FBF
:1012A000F91F81A092A0A3A0B4A0E701888299822F
:1012B000AA82BB82FD01E60FF71F85A192E095A3EC
:1012C00002301105E9F0A8F401301105D9F5660FD7
:1012D000771F660F771FFD01E60FF71F81A092A011
:1012E000A3A0B4A0BA01A901482959296A297B29D8
:1012F00016C003301105D9F004301105A9F022C041
:10130000660F771F660F771FFD01E60FF71F41A1DC
:1013100052A163A174A14F5F5F4F6F4F7F4F41A3F5
:1013200052A363A374A30EC0823009F4A0C0660F59
:10133000771F660F771FFD01E60FF71F21A332A36A
:1013400043A354A3813011F081E092C08091D30077
:10135000811158C01A96ED91FC911B9714968D91AE
:101360009C91159716962D913C911797EC013D8312
:101370002C831696CD91DC9117979B838A839D01D0
:101380002E5F3F4F818192818217930711F4D283A0
:10139000C1831B961C921E921A9780818150808374
:1013A0005696EC9156978091DE008E1710F4E093DC
:1013B000DE0089E08E9FF0011124E55FFE4F018081
:1013C000F281E02D1596FC93EE931497448155819C
:1013D00017965C934E931697C481D5813B832A83DD
:1013E000358324835696EC9156978E9FF0011124F5
:1013F000E55FFE4F1B96FC93EE931A9780818F5FFB
:10140000808321C0E091ED00F091EE001F96FC93E7
:10141000EE931E978481958151969C938E9350975D
:10142000C481D581CD010C969B838A839583848367
:101430008CEE90E055969C938E9354978091EC009F
:101440008F5F8093EC00E091D100F091D20056962E
:101450009C918689891708F077CFC114D10419F0BF
:1014600081E0F601808381E08093DA0001C080E0B2
:10147000DF91CF911F910F91FF90EF90DF90CF9070
:10148000BF90AF909F908F9008950F931F93CF932D
:10149000DF93FC01A62FB0E0EC01CA0FDB1F8DA18A
:1014A00092E09DA3AA0FBB1FAA0FBB1FAE0FBF1FC9
:1014B00091960D911D912D913C9194970F5F1F4F27
:1014C0002F4F3F4F91960D931D932D933C939497DF
:1014D000813009F086C08091D30081114FC0A28570
:1014E000B3858481958126813781EC013D832C83EE
:1014F000C681D7819B838A839F012E5F3F4F1196C0
:101500008D919C9112978217930721F41296DC9388
:10151000CE931197138612868C9181508C93A68955
:101520008091DE008A1710F4A093DE0089E08A9F84
:10153000D0011124A55FBE4F11960D90BC91A02D36
:10154000B583A48314966D917C91159777836683F8
:101550001496CD91DC9115973B832A8315963C9385
:101560002E931497A6898A9FD0011124A55FBE4FA0
:10157000B387A2878C918F5F8C9321C0A091ED00DF
:10158000B091EE00B787A68714968D919C91159720
:10159000918B808B1496CD91DC911597CF010C9691
:1015A0009B838A8315969C938E9314978CEE90E080
:1015B000958B848B8091EC008F5F8093EC00A091E1
:1015C000D100B091D200968956968C91891748F433
:1015D0004115510519F081E0FA01808381E0809383
:1015E000DA00DF91CF911F910F910895009721F4B8
:1015F0008091D1009091D2000FB6F8940F92FC0127
:10160000E60FF11D85A1823019F415A281E001C019
:1016100080E00F900FBE0895CF92DF92EF92FF927D
:101620000F931F93009721F48091D1009091D200E5
:101630000FB6F8940F92FC0174E0679FE00DF11D66
:10164000112461A172A183A194A1C1A0D2A0E3A0A1
:10165000F4A089019A0100951095209530950C21F0
:101660001D212E213F2101A312A323A334A30F90F8
:101670000FBE1F910F91FF90EF90DF90CF900895D4
:101680000FB6F8940F92FC01928D0F900FBE81E07F
:10169000911180E008950F931F93CF93DF93EC0196
:1016A000042F1A8D4C8D4423B1F150E0011115C067
:1016B0008A819B810E9450142C8D8A819B81820F8C
:1016C000911D9B838A832C813D818217930718F19A
:1016D000888199819B838A831EC08E819F810E940D
:1016E00050148C8D90E09195819591092E813F81C8
:1016F000280F391F3F832E834881598124173507CE
:1017000030F42C813D81820F931F9F838E830230A2
:1017100011F4111111501F5F1A8F80E0DF91CF91EA
:101720001F910F910895FC01CB01448D4423A1F03A
:1017300050E026813781240F351F3783268364814B
:1017400075812617370720F0208131813783268362
:10175000668177810C9450140895EF92FF921F9345
:10176000CF93DF93EC010FB6F8940F921E8D7C019E
:1017700081E1E80EF11C11165CF48989882341F09F
:10178000C7010E94A50581110E9426071150F3CFC1
:101790008FEF8E8F0F900FBE0FB6F8940F921D8DA6
:1017A0007E0188E0E80EF11C11165CF48885882320
:1017B00041F0C7010E94A50581110E942607115022
:1017C000F3CF8FEF8D8F0F900FBEDF91CF911F91D1
:1017D000FF90EF900895CF93DF93EC01892B09F4EC
:1017E0003EC09B8D992309F43AC07C8D0FB6F894C6
:1017F0000F92488159819A01979F200D311D112424
:101800003D832C831A8E5B834A83892F90E0019756
:10181000789F9001799F300D1124CA01820F931F88
:101820009F838E838FEF8D8F8E8F61110CC0888583
:10183000882389F0CE0108960E94A505882359F0D7
:101840000E949E1008C0CE0108960E946C0FCE0127
:1018500041960E946C0F0F900FBE81E001C080E0A6
:10186000DF91CF9108950F931F93CF93DF93811151
:1018700003C0C0E0D0E019C0162F082F869FC0011A
:1018800011244F960E945611EC01009791F311110B
:1018900003C09983888303C04F96998388830B8FF5
:1018A0001C8F61E0CE010E94EB0BCE01DF91CF9146
:1018B0001F910F910895AF92BF92CF92DF92FF9246
:1018C0000F931F93CF93DF9300D000D01F92CDB71B
:1018D000DEB78C016B015D834C83F22E80E05801F2
:1018E00098E0A90EB11C0FB6F8940F92F801228D62
:1018F000938D291718F0F2E0FF1214C04F2DB60196
:10190000C8010E944B0BF8019189992321F0C8016D
:1019100041960E94A50581110E949E100F900FBE56
:1019200081E050C02C813D81232B19F40F900FBE14
:1019300048C0811104C0CE0101960E94EF060F90AD
:101940000FBE0E94BD020FB6F8940F92F801858D6C
:101950008F3F09F4158EF801868D8F3F09F4168E9E
:101960000F900FBEBE016C5F7F4FCE0101960E94AB
:10197000FA06811121C00FB6F8940F92F801928DEA
:101980000F900FBE838D981311C06C817D81C501AE
:101990000E945105C8010E94AD0B0E94DE038823FE
:1019A00011F081E0A0CF0E949E10FBCFC8010E94E1
:1019B000AD0B0E94DE03F5CFC8010E94AD0B0E9463
:1019C000DE0380E00F900F900F900F900F90DF914B
:1019D000CF911F910F91FF90DF90CF90BF90AF906C
:1019E0000895EF92FF921F93CF93DF93EC019A8DAE
:1019F0008B8D981710F0223009F57A011E8D8A8D93
:101A0000422FCE010E944B0B1F3F81F4898988230E
:101A100099F0CE0141960E94A505882369F0E11452
:101A2000F10451F081E0F701808309C00E94D202E5
:101A3000181710F41F5F1E8F81E001C080E0DF9156
:101A4000CF911F91FF90EF900895EF92FF921F9317
:101A5000CF93DF93EC018A8D9B8D8917F0F47B0186
:101A60001E8D8F5F8A8F1F3F81F48989882399F0AB
:101A7000CE0141960E94A505882369F0E114F10486
:101A800051F081E0F701808309C00E94D20218174B
:101A900010F41F5F1E8F81E001C080E0DF91CF91C5
:101AA0001F91FF90EF900895AF92BF92CF92DF9277
:101AB000FF920F931F93CF93DF9300D000D01F921C
:101AC000CDB7DEB78C016B015D834C8380E058019C
:101AD00091E1A90EB11C0FB6F8940F92F801F28CA7
:101AE000FF20A9F0B601C8010E94930BFA94F801F7
:101AF000F28E8085882339F0C80108960E94A505DA
:101B000081110E949E100F900FBE81E050C02C8169
:101B10003D81232B19F40F900FBE48C0811104C0E2
:101B2000CE0101960E94EF060F900FBE0E94BD02EB
:101B30000FB6F8940F92F801858D8F3F09F4158E3A
:101B4000F801868D8F3F09F4168E0F900FBEBE01EF
:101B50006C5F7F4FCE0101960E94FA0681111CC076
:101B6000C8010E94400B882389F06C817D81C501EA
:101B70000E945105C8010E94AD0B0E94DE0388231C
:101B800011F081E0A8CF0E949E10FBCFC8010E94F7
:101B9000AD0B0E94DE03F5CFC8010E94AD0B0E9481
:101BA000DE03C8010E94400B882359F380E00F90A8
:101BB0000F900F900F900F90DF91CF911F910F9189
:101BC000FF90DF90CF90BF90AF900895EF92FF927B
:101BD0000F931F93CF93DF9300D000D01F92CDB708
:101BE000DEB78C017D836C8390E0780181E1E80EA3
:101BF000F11C0FB6F8940F92F801828D882381F0C2
:101C00008150828F8085882339F0C80108960E9410
:101C1000A50581110E949E100F900FBE81E050C05B
:101C20002C813D81232B19F40F900FBE48C09111D8
:101C300004C0CE0101960E94EF060F900FBE0E94D5
:101C4000BD020FB6F8940F92F801858D8F3F09F40D
:101C5000158EF801868D8F3F09F4168E0F900FBEFA
:101C6000BE016C5F7F4FCE0101960E94FA06811182
:101C70001CC0C8010E94400B882389F06C817D81C3
:101C8000C7010E945105C8010E94AD0B0E94DE03EE
:101C9000882311F091E0ADCF0E949E10FBCFC801C8
:101CA0000E94AD0B0E94DE03F5CFC8010E94AD0B70
:101CB0000E94DE03C8010E94400B882359F380E094
:101CC0000F900F900F900F900F90DF91CF911F9179
:101CD0000F91FF90EF900895CF92DF92EF92FF92D5
:101CE0000F931F93CF93DF9300D000D01F92CDB7F7
:101CF000DEB78C017B015D834C8380E0680191E15C
:101D0000C90ED11C0FB6F8940F92F801928D992349
:101D1000B9F0C680D780B701C8010E94930BF801C3
:101D2000D782C6828189882339F0C80141960E94F2
:101D3000A50581110E949E100F900FBE81E050C03A
:101D40002C813D81232B19F40F900FBE48C08111C7
:101D500004C0CE0101960E94EF060F900FBE0E94B4
:101D6000BD020FB6F8940F92F801858D8F3F09F4EC
:101D7000158EF801868D8F3F09F4168E0F900FBED9
:101D8000BE016C5F7F4FCE0101960E94FA06811161
:101D90001CC0C8010E94400B882389F06C817D81A2
:101DA000C6010E945105C8010E94AD0B0E94DE03CE
:101DB000882311F081E0A6CF0E949E10FBCFC801BE
:101DC0000E94AD0B0E94DE03F5CFC8010E94AD0B4F
:101DD0000E94DE03C8010E94400B882359F380E073
:101DE0000F900F900F900F900F90DF91CF911F9158
:101DF0000F91FF90EF90DF90CF900895EF92FF92B8
:101E00000F931F93CF93DF93FC01028D002309F101
:101E10007A01EC01158D0E94930B01500A8F1F3F30
:101E200081F48885882399F0CE0108960E94A50543
:101E3000882369F0E114F10451F081E0F701808317
:101E400009C00E94D202181710F41F5F1D8F81E095
:101E500001C080E0DF91CF911F910F91FF90EF9033
:101E600008950F931F93CF93DF93FC01228D2223BC
:101E700049F0EC01068117810E94930B1F830E83AA
:101E800081E001C080E0DF91CF911F910F91089513
:101E90000FB6F8940F92FC01828D0F900FBE08953B
:101EA0000FB6F8940F92FC01228D0F900FBE838D18
:101EB000821B0895FC01828D08950C948A11FC0107
:101EC000928D81E0911180E00895FC01928D81E076
:101ED000238D291380E00895FC010396928381836A
:101EE0002FEF3FEF34832383968385839087878307
:101EF00010820895FC01118610860895CF93DF9318
:101F00009C01FB01DC011196CD91DC911297D383EA
:101F1000C2838C819D81958384838C819D81DC012A
:101F200013967C936E9312977D836C833187208701
:101F3000F90180818F5F8083DF91CF9108950F93A6
:101F40001F93CF93DF938C01FB01808191818F3FA1
:101F50002FEF920721F4E801AF81B8850EC0D801B8
:101F6000139612962D913C911397E901488159815E
:101F70008417950710F0D901F4CF12968D919C919A
:101F8000139793838283EC01FD83EC83B583A48351
:101F90001396FC93EE93129711870087F8018081C6
:101FA0008F5F8083DF91CF911F910F910895CF9321
:101FB000DF93FC01A085B1858281938124813581E5
:101FC000EC013D832C83C481D5819B838A83119648
:101FD0008D919C911297E817F90721F41296DC93E2
:101FE000CE931197118610868C9181508C938C9191
:101FF000DF91CF91089531E1FC013083319722E2E6
:1020000020833197A3E3A083319760833197708356
:1020100031971082319760E8608331971082319751
:1020200062E06083319763E06083319764E06083AE
:10203000319765E06083319766E06083319767E0B0
:102040006083319768E06083319769E060833197FE
:1020500060E1608331973083319732E1308331978B
:1020600033E13083319734E13083319735E1308388
:10207000319736E13083319737E13083319738E15A
:102080003083319739E13083319730E230833197B3
:1020900031E2308331972083319723E220833197D7
:1020A000408331975083319726E22083319727E28E
:1020B0002083319728E22083319729E220833197CA
:1020C00020E32083319721E320838697089583ECD2
:1020D0008BBD8FE48ABD8BE08EBD89B7806189BFDF
:1020E000A091D100B091D200CD91CDBFDD91DEBFE6
:1020F000FF91EF91DF91CF91BF91AF919F918F9120
:102100007F916F915F914F913F912F911F910F910F
:10211000FF90EF90DF90CF90BF90AF909F908F9007
:102120007F906F905F904F903F902F901F900F90F7
:102130000FBE0F90089581E0089508950F920FB695
:10214000F8940F921F9211242F923F924F925F9218
:102150006F927F928F929F92AF92BF92CF92DF92B7
:10216000EF92FF920F931F932F933F934F935F93A1
:102170006F937F938F939F93AF93BF93CF93DF938F
:10218000EF93FF93A091D100B091D2000DB60D92C4
:102190000EB60D920E940E05A091D100B091D20012
:1021A000CD91CDBFDD91DEBFFF91EF91DF91CF915A
:1021B000BF91AF919F918F917F916F915F914F915F
:1021C0003F912F911F910F91FF90EF90DF90CF9053
:1021D000BF90AF909F908F907F906F905F904F9047
:1021E0003F902F901F900F900FBE0F9008950F9269
:1021F0000FB6F8940F921F9211242F923F924F9294
:102200005F926F927F928F929F92AF92BF92CF9286
:10221000DF92EF92FF920F931F932F933F934F9371
:102220005F936F937F938F939F93AF93BF93CF935E
:10223000DF93EF93FF93A091D100B091D2000DB640
:102240000D920EB60D920E94DD0281110E940E05C4
:10225000A091D100B091D200CD91CDBFDD91DEBF74
:10226000FF91EF91DF91CF91BF91AF919F918F91AE
:102270007F916F915F914F913F912F911F910F919E
:10228000FF90EF90DF90CF90BF90AF909F908F9096
:102290007F906F905F904F903F902F901F900F9086
:1022A0000FBE0F9008950E94F7101895CF93DF93FB
:1022B000EC010E94BD028091380190913901892B77
:1022C00031F48CE391E090933901809338012097A9
:1022D000C9F020913A0130913B01CE01820F931F4A
:1022E0008F3F43E0940770F42817390758F4C091E2
:1022F0003801D0913901C20FD31F90933B018093D5
:102300003A0102C0C0E0D0E00E94DE03CE01DF91BE
:10231000CF910895089510923B0110923A010895CB
:1023200020913A0130913B018FEF93E0821B930B98
:10233000089541E062E080E00E94041385E08A9500
:10234000F1F7000040E062E080E00C940413CF93CA
:10235000C82F482F417060E081E00E940413C1FB48
:10236000442740F961E081E00E940413C2FB442746
:1023700040F962E081E00E940413C3FB442740F966
:1023800064E081E0CF910C940413CF93C82F829521
:102390008F700E94A71140E063E080E00E94041368
:1023A0000E9499118FE891E00197F1F700C00000B9
:1023B0008C2F8F700E94A7110E9499118FE891E0D5
:1023C0000197F1F700C00000CF91089541E060E06F
:1023D00081E00E94C01241E061E081E00E94C012F1
:1023E00041E062E081E00E94C01241E064E081E0EF
:1023F0000E94C01241E063E080E00E94C01241E010
:1024000062E080E00E94C01240E062E080E00E9452
:10241000041383E30E94C51182E30E94C51188E280
:102420000E94C5118EE00E94C51181E00E94C51175
:102430008FE39FE10197F1F700C0000086E00C9464
:10244000C51181E00E94C51183E00E94C5118FE390
:102450009FE10197F1F700C000000895CF93C82FC6
:1024600082958F700E94A71141E063E080E00E9496
:1024700004130E9499118FE891E00197F1F700C0D1
:1024800000008C2F8F700E94A7110E9499118FE875
:1024900091E00197F1F700C00000CF910895CF932C
:1024A000DF93EC018991882319F00E942E12FACF54
:1024B000DF91CF91089580EC0C94C5118150860F67
:1024C0000C94C51161E082E00C947813CF93DF93F4
:1024D000CDB7DEB72A970FB6F894DEBF0FBECDBFDB
:1024E0009AE0E1E6F0E0DE01119601900D929A95F6
:1024F000E1F7E1E0F0E0EC0FFD1FE80FF11D608176
:1025000082E02A960FB6F894DEBF0FBECDBFDF91F2
:10251000CF910C949C1361E083E00C947813CF93DB
:10252000DF93CDB7DEB72A970FB6F894DEBF0FBEA4
:10253000CDBF9AE0E1E6F0E0DE01119601900D9248
:102540009A95E1F7E1E0F0E0EC0FFD1FE80FF11DD7
:10255000608183E02A960FB6F894DEBF0FBECDBF30
:10256000DF91CF910C949C13F8940895789408957A
:102570008FB78F778FBF08958FB780688FBF08950B
:102580008130A9F028F0823009F1833071F108958B
:102590002AB381E090E001C0880F6A95EAF7411103
:1025A00003C08095822301C0822B8ABB089527B384
:1025B00081E090E001C0880F6A95EAF7411103C0FD
:1025C0008095822301C0822B87BB089524B381E0CC
:1025D00090E001C0880F6A95EAF7411103C0809529
:1025E000822301C0822B84BB089521B381E090E057
:1025F00001C0880F6A95EAF7411103C080958223D4
:1026000001C0822B81BB08958130A9F028F082306F
:1026100009F1833071F108952BB381E090E001C09E
:10262000880F6A95EAF7411103C08095822301C0A3
:10263000822B8BBB089528B381E090E001C0880F06
:102640006A95EAF7411103C08095822301C0822B6D
:1026500088BB089525B381E090E001C0880F6A959A
:10266000EAF7411103C08095822301C0822B85BB0C
:10267000089522B381E090E001C0880F6A95EAF7DF
:10268000411103C08095822301C0822B82BB089533
:10269000813081F028F08230B9F08330F9F008956C
:1026A0002BB381E090E001C0880F6A95EAF782279A
:1026B0008BBB089528B381E090E001C0880F6A9534
:1026C000EAF7822788BB089525B381E090E001C036
:1026D000880F6A95EAF7822785BB089522B381E0C7
:1026E00090E001C0880F6A95EAF7822782BB0895BF
:1026F000813069F028F0823089F08330B1F008959C
:10270000611102C01ABA08958FEF8ABB0895611152
:1027100002C017BA08958FEF87BB0895611102C0F8
:1027200014BA08958FEF84BB0895611102C011BAE5
:1027300008958FEF81BB0895813041F028F08230F9
:1027400039F0833039F008956BBB089568BB089564
:1027500065BB089562BB0895813049F030F0823046
:1027600041F08330C1F420B305C029B303C026B3C0
:1027700001C023B381E090E0062E02C0880F991FAC
:102780000A94E2F730E08223932302C0959587955F
:102790006A95E2F7089580E00895813051F028F0BD
:1027A000823059F0833069F008958BB380958BBBEC
:1027B000089588B3809588BB089585B3809585BBBF
:1027C000089582B3809582BB0895813049F030F03E
:1027D000823041F0833041F480B3089589B3089585
:1027E00086B3089583B3089580E0089541E065E0DD
:1027F00080E00E94C0120E94E6110E9462120E94B4
:102800008B12E12CF12C00E020E030E040E850E0B9
:1028100066E770E089E490E00E942101813021F0B8
:102820008FE790E00E944F12E12CF12C01E020E0B4
:1028300030E040E850E06AE870E08BE790E00E940A
:102840002101813021F084E990E00E944F12E12CB7
:10285000F12C02E020E030E040E850E06FE970E069
:102860008EE890E00E942101813021F089EA90E019
:102870000E944F12E12CF12C03E020E030E040E810
:1028800050E064EB70E082E590E00E94210181302D
:1028900021F08DEB90E00E944F120E948F02FFCF3B
:1028A000FB01DC0102C001900D9241505040D8F76D
:0628B0000895F894FFCF2B
:1028B60004C0F9A4B0999282F8809048656C6C6F58
:1028C600204E544921006C65645F7461736B004649
:1028D60061696C65642020743100737364315F74C0
:1028E60061736B004661696C656420207432007305
:1028F6007364325F7461736B004661696C65642052
:10290600207433006C63645F7461736B00466169A5
:0E2916006C6564202074340049444C45000078
:00000001FF
