:100000000C942A000C9447000C9447000C94470071
:100010000C9447000C9447000C9447000C94481132
:100020000C9447000C9447000C9447000C94470034
:100030000C9447000C942F150C94D7140C940B15AA
:100040000C9447000C9447000C9447000C94470014
:100050000C94470011241FBECFE5D8E0DEBFCDBF12
:1000600010E0A0E6B0E0E2ECF0E302C005900D92F3
:10007000AC39B107D9F727E0ACE9B0E001C01D9277
:10008000A83DB207E1F70E9400160C945F180C948B
:100090000000C0E065E070E08091D4079091D50742
:1000A0000E94DC0D813099F48CE990E00E94AB1540
:1000B0000E942312CF5FC03119F40E94501207C072
:1000C000C13228F061E080E80E945312C0E084E66B
:1000D00090E00E94C504DECF5F9B11C06CB170E060
:1000E0008CE990E00E94DD1520E040E050E060E007
:1000F00070E08091D4079091D5070E94510C85E063
:1001000090E00E94C504E8CFE091E800F091E9009A
:100110008081811103C08FEF9FEF09C0E091E8005B
:10012000F091E9000580F681E02D80819181909326
:10013000C8008093C70008950F931F93CF93DF9358
:10014000EC010091D0001091D1008091C2009091FB
:10015000C30002960E94CD0FC00FD11FE091C200D4
:10016000F091C300D383C2836091C2007091C30039
:10017000C017D10760F48091E6009091E7006E5FB0
:100180007F4FDF91CF911F910F910C94950F80912C
:10019000E8009091E9006E5F7F4F0E94950F80917B
:1001A000C7009091C800C817D90720F4D093C800A1
:1001B000C093C700DF91CF911F910F910895809157
:1001C000D3008823E1F30FB6F8940F92E091D900A1
:1001D000F091DA00C681D781CE0102960E94CD0F40
:1001E0008091D20081508093D2008091D3008150C1
:1001F0008093D3000F900FBE8F89988D0E947F113E
:10020000CE010E947F11DBCF4F925F926F927F925F
:100210008F929F92AF92BF92CF92DF92EF92FF9216
:100220000F931F93CF93DF934C016B015A01290168
:10023000CA010E944B113C01892B09F4E5C086E2FA
:1002400090E00E944B11EC01892BB1F086E2DE01B7
:100250001D928A95E9F7788E6F8AB1E0AB1AB108E2
:10026000A60CB71CC114D104C1F0BE01675E7F4F5C
:10027000F601C601089607C0C3010E947F11C4C0E1
:100280008E179F0749F09F014191DB014D93BD01FE
:10029000D9012C912111F4CF18A2083008F007E001
:1002A0000E8B6E01B2E0CB0ED11CC6010E94700F06
:1002B000CE010C960E94700FD987C88788E090E025
:1002C000801B91099D878C87DB8BCA8BA201B401AF
:1002D000C5010E94F10F99838883E114F10419F09C
:1002E000F701D183C0830FB6F8940F928091D200AA
:1002F0008F5F8093D2008091C2009091C300892BC0
:1003000099F5D093C300C093C2008091D200813090
:10031000D9F50CEF10E084E4E82E81E0F82EC80156
:100320000E94620F075F1F4FE016F106C1F783EFCF
:1003300090E00E94620F8AEE90E00E94620F8DEDC5
:1003400090E00E94620F84ED90E00E94620F83EFC4
:1003500090E09093E9008093E8008AEE90E090931B
:10036000E7008093E60010C08091CE0081110CC0A0
:10037000E091C200F091C30096898E89891720F020
:10038000D093C300C093C2008091C9008F5F809357
:10039000C900EE898091CF008E1710F4E093CF0052
:1003A00089E08E9FF0011124E450FF4F0180F2811B
:1003B000E02DFD83EC83248135813F832E83A4814E
:1003C000B5811396DC92CE921297D582C482EE89C3
:1003D0008E9FF0011124E450FF4FFB87EA87808154
:1003E0008F5F80830F900FBE8091CE00882351F0E5
:1003F000E091C200F091C30096898E89981710F49D
:100400000E94931081E001C08FEFDF91CF911F9187
:100410000F91FF90EF90DF90CF90BF90AF909F90A3
:100420008F907F906F905F904F9008950F931F93E0
:10043000CF93DF93EC010FB6F8940F92892B21F440
:10044000C091C200D091C3008E010E5F1F4FC80142
:100450000E94CD0F8C899D89892B21F0CE010C96AD
:100460000E94CD0F8091C9008F5F8093C900809159
:10047000C2009091C300C817D90759F4B80184EDA0
:1004800090E00E94740F8091D3008F5F8093D3001F
:1004900007C08091D20081508093D2000E948400D6
:1004A0000F900FBE8091C2009091C300C817D9076A
:1004B00039F08F89988D0E947F11CE010E947F11A3
:1004C0008091CE00882349F08091C2009091C300B2
:1004D000C817D90711F40E949310DF91CF911F9193
:1004E0000F910895EF92FF920F9385ECE82E80E034
:1004F000F82E00E020E030E045E550E066E970E0ED
:100500008FED90E00E940401813079F4F8942FEF90
:100510003FEF3093C8002093C7008093CE00109225
:10052000D1001092D0000E945D1080916C000F915C
:10053000FF90EF900895F8941092CE000C949210D2
:100540008091C4008F5F8093C40008950FB6F89423
:100550000F928091D0009091D1000F900FBE08951E
:100560008091D0009091D10008958091D20008959B
:10057000009721F48091C2009091C300499608959C
:10058000CF92DF92EF92FF920F931F93CF93DF935F
:100590008091C4008111E2C0C091D000D091D100FF
:1005A0006E018FEFC81AD80AD092D100C092D00045
:1005B000C114D104B9F48091E8009091E900209130
:1005C000E6003091E7003093E9002093E800909333
:1005D000E7008093E6008091CA008F5F8093CA0095
:1005E0000E9484008091C7009091C800C816D90667
:1005F00008F49EC080E069E0E091E800F091E90035
:100600009081911103C02FEF3FEF0FC0E091E80000
:10061000F091E9000580F681E02D0680F781E02D5C
:1006200022813381C216D30628F43093C800209368
:10063000C7007FC0C285D38524813581468157811B
:10064000D90115965C934E93149746815781DA0130
:1006500013963C932E9312979F012E5F3F4F098173
:100660001A810217130711F45A83498313861286DD
:10067000988191509883A489B5891097F9F046859F
:10068000578500891189EA011D830C83008911892E
:10069000E8015B834A831196ED90FC901297AF01BD
:1006A000445F5F4FE416F50621F412961C930E93F7
:1006B0001197158A148A9C9191509C93A6899091C8
:1006C000CF009A1710F4A093CF006A9FD001112495
:1006D000A450BF4F11960D90BC91A02DB583A4835B
:1006E00014964D915C9115975783468314964D91BE
:1006F0005C911597EA013B832A8315963C932E93D0
:100700001497A6896A9FD0011124A450BF4FB387C4
:10071000A2879C919F5F9C93A091C200B091C3005F
:10072000268956969C91921708F066CF81E064CF97
:1007300080E0E091C200F091C300E689D9E0ED9F2E
:10074000F0011124E450FF4F9081923008F081E0D5
:100750009091CB00992361F081E00AC08091CC0098
:100760009091CD0001969093CD008093CC0080E0D5
:10077000DF91CF911F910F91FF90EF90DF90CF907D
:100780000895EF92FF920F931F93CF93DF930FB6CD
:10079000F8940F928091C40081508093C40080919E
:1007A000C400882311F080E0B0C08091D20088237B
:1007B000D1F3E090E200F090E300E0E0F0E039E017
:1007C00041E08091DD00882309F481C0D7011696AD
:1007D000ED91FC911797A489B58966857785808905
:1007E0009189EB019D838C8380899189EC017B83C6
:1007F0006A83BF01645F7F4F11960D911C91129720
:100800000617170721F412969C938E931197158A59
:10081000148A8C9181508C93A285B38584819581B3
:1008200066817781EC017D836C8366817781EB0142
:100830009B838A83CF01029611960D911C9112978A
:100840000817190721F412967C936E93119713865B
:1008500012862C9121502C93A6892091CF002A1723
:1008600010F4A093CF003A9FD0011124A450BF4FA1
:1008700011960D90BC91A02DB583A48314966D9113
:100880007C9115977783668314966D917C9115976B
:10089000EB019B838A8315969C938E931497A6896C
:1008A0003A9FD0011124A450BF4FB387A2878C91E7
:1008B0008F5F8C93A091C200B091C3009689569629
:1008C0008C91981708F47DCF4093CB007ACFEF2B13
:1008D00011F00E948400C091CC00D091CD002097EF
:1008E00061F011E00E94C00281111093CB002197AA
:1008F000C9F71092CD001092CC008091CB008823D4
:1009000009F451CF0E94931081E00F900FBEDF9148
:10091000CF911F910F91FF90EF9008950F931F9328
:10092000CF93DF938C01EB010E94A0022091D000B5
:100930003091D100F80140815181CA018C0F9D1F77
:100940002417350728F48417950748F4C1E004C03C
:10095000C1E08417950720F02817390708F0C0E098
:10096000F80191838083CC2321F0821B930B0E949A
:100970009C000E94C103811102C00E9493108C2F21
:10098000DF91CF911F910F910895CF93DF93EC01E9
:10099000892B19F40E94931009C00E94A002CE0175
:1009A0000E949C000E94C1038823A1F3DF91CF9194
:1009B0000895CF93DF93EC010E94A0020FB6F89444
:1009C0000F928091CC009091CD00C80FD91FD09389
:1009D000CD00C093CC000F900FBEDF91CF910C944F
:1009E000C1038091C400882321F081E08093CB0073
:1009F00008951092CB008091CF0069E0482F50E01D
:100A0000649F9001659F300D1124F901E450FF4F60
:100A10009081911102C08150F1CFA181B2811296D3
:100A20000D90BC91A02DB283A18321503F4FA217FE
:100A3000B30731F412962D913C91139732832183A1
:100A400099E0949FF001959FF00D1124E450FF4F21
:100A50000180F281E02D268137813093C3002093FD
:100A6000C2008093CF000895CF93DF93EB01609194
:100A7000C2007091C300645F7F4F0E94950FCE014A
:100A8000DF91CF910C949C00CF93DF93FC01A09158
:100A9000C200B091C30070681D967C936E931C9742
:100AA000A181B281C091C200D091C300BF87AE873F
:100AB000C091C200D091C30014968D919C9115975E
:100AC000998B888B2091C2003091C3001496CD91F0
:100AD000DC911597245F3F4F3B832A832091C2000E
:100AE0003091C300245F3F4F15963C932E9314978B
:100AF000A091C200B091C3005596FC93EE93549719
:100B000090819F5F9083CA01DF91CF910C949C00EC
:100B1000CF93DF93DC011596ED91FC91169706803B
:100B2000F781E02DA489B58986859785208931894B
:100B3000EC013D832C83C089D1899B838A83CF01BB
:100B40000C9611962D913C9112972817390721F494
:100B50001296DC93CE931197158A148A2C9121500A
:100B60002C932091C40021114FC0A285B3858481AC
:100B7000958126813781EC013D832C83C681D78105
:100B80009B838A839F012E5F3F4F11968D919C918D
:100B900012978217930721F41296DC93CE93119744
:100BA000138612868C9181508C93A6898091CF00F8
:100BB0008A1710F4A093CF0089E08A9FD0011124F6
:100BC000A450BF4F11960D90BC91A02DB583A48366
:100BD00014964D915C911597578346831496CD9149
:100BE000DC9115973B832A8315963C932E9314979B
:100BF000A6898A9FD0011124A450BF4FB387A28732
:100C00008C918F5F8C931FC0A091DE00B091DF00AC
:100C1000B787A68714962D913C911597318B208B21
:100C20001496CD91DC9115979B838A8315969C939E
:100C30008E9314978DED90E0958B848B8091DD00E1
:100C40008F5F8093DD00A091C200B091C3009689B0
:100C500056968C91891720F481E08093CB0001C0D7
:100C600080E0DF91CF910895CF93DF93DC0170682E
:100C700011967C936E931696ED91FC9117971896AA
:100C80004D915C91199712962D913C911397149662
:100C90008D919C911597E9019D838C8314968D917C
:100CA0009C911597EC013B832A83EA0129813A81C3
:100CB000A217B30711F49A83898319961C921E9286
:100CC0001897DA018C9181508C93A285B385848129
:100CD000958126813781EC013D832C83C681D781A4
:100CE0009B838A839F012E5F3F4F11968D919C912C
:100CF00012978217930721F41296DC93CE931197E3
:100D0000138612868C9181508C93A6898091CF0096
:100D10008A1710F4A093CF0089E08A9FD001112494
:100D2000A450BF4F11960D90BC91A02DB583A48304
:100D300014964D915C911597578346831496CD91E7
:100D4000DC9115973B832A8315963C932E93149739
:100D5000A6898A9FD0011124A450BF4FB387A287D0
:100D60008C918F5F8C93A091C200B091C300968943
:100D700056968C91891718F481E08093CB00DF910F
:100D8000CF9108950FB6F8940F922091CA00FC01FC
:100D900020832091D0003091D100328321830F90A5
:100DA0000FBE08952091CA00FC0120832091D0003D
:100DB0003091D1003283218308950FB6F8940F92B9
:100DC0002091D0003091D100DC0111964D915C91C1
:100DD0001297E091CA00FC91FE1741F024173507E5
:100DE00028F0FB011182108281E010C0241B350B1A
:100DF000DB014D915C912417350798F7FB01421BED
:100E0000530B518340830E94D20680E00F900FBEA7
:100E1000089581E08093CB0008958091C200909165
:100E2000C3000895E091C200F091C30084859585C8
:100E3000E091C200F091C300A091C200B091C30044
:100E400056964C9128E030E0241B310935872487E1
:100E50000895CF92DF92EF92FF920F931F93CF935B
:100E6000DF93F62E0FB6F8940F92E091C200F09146
:100E7000C300C82FD0E08E01000F111F000F111FFB
:100E8000E00FF11F81A192A1A3A1B4A1892B8A2B0C
:100E90008B2B81F4E091C200F091C300EC0FFD1F99
:100EA00081E085A34115510529F0CA010E949C00EB
:100EB0000E9493100F900FBE0FB6F8940F92E0911E
:100EC000C200F091C300E00FF11F61A172A183A1E4
:100ED00094A16115710581059105C9F02091C200A9
:100EE0003091C300F901E00FF11FFF2029F011A29A
:100EF00012A213A214A20BC06B017C0121E0C21A42
:100F0000D108E108F108C1A2D2A2E3A2F4A2209183
:100F1000C2003091C300C20FD31F1DA20F900FBE9D
:100F2000DF91CF911F910F91FF90EF90DF90CF90C5
:100F300008958F929F92AF92BF92CF92DF92EF92DD
:100F4000FF920F931F93CF93DF93480159010FB680
:100F5000F8940F92E091C200F091C300C82FD0E046
:100F6000EC0FFD1F85A1823059F1E091C200F09194
:100F7000C300CE01880F991F880F991FE80FF91F32
:100F800081A192A1A3A1B4A14095509560957095BF
:100F9000482359236A237B2341A352A363A374A349
:100FA000E091C200F091C300EC0FFD1F81E085A32A
:100FB000C114D10429F0C6010E949C000E94931024
:100FC0000F900FBE0FB6F8940F92E114F104A1F048
:100FD000E091C200F091C300CE01880F991F880FE5
:100FE000991FE80FF91F81A192A1A3A1B4A1F70154
:100FF00080839183A283B383E091C200F091C30008
:10100000EC0FFD1F85A18230E9F4E091C200F09160
:10101000C300CE01880F991F880F991FE80FF91F91
:1010200081A192A1A3A1B4A180949094A094B09422
:1010300088229922AA22BB2281A292A2A3A2B4A2B0
:1010400081E001C080E02091C2003091C300C20F56
:10105000D31F1DA20F900FBEDF91CF911F910F9153
:10106000FF90EF90DF90CF90BF90AF909F908F90C8
:1010700008958F929F92AF92BF92CF92DF92EF929C
:10108000FF920F931F93CF93DF93DC010FB6F89479
:101090000F9270E0E114F10481F0FB01EE0FFF1FED
:1010A000EE0FFF1FE80FF91F81A092A0A3A0B4A02C
:1010B000E70188829982AA82BB82FD01E60FF71FB1
:1010C00085A192E095A302301105E9F0A8F4013062
:1010D0001105D9F5660F771F660F771FFD01E60F23
:1010E000F71FC1A0D2A0E3A0F4A0BA01A9014C2926
:1010F0005D296E297F2916C003301105D9F004300F
:101100001105A9F022C0660F771F660F771FFD013A
:10111000E60FF71F41A152A163A174A14F5F5F4F7A
:101120006F4F7F4F41A352A363A374A30EC08230BD
:1011300009F472C0660F771F660F771FFD01E60F77
:10114000F71F21A332A343A354A3813009F062C047
:101150001A96ED91FC911B9714968D919C91159781
:1011600016962D913C911797EC013D832C83169692
:10117000CD91DC9117979B838A839D012E5F3F4F12
:10118000818192818217930711F4D283C1831B96C8
:101190001C921E921A978081815080835696EC9102
:1011A00056978091CF008E1710F4E093CF0089E01E
:1011B0008E9FF0011124E450FF4F0180F281E02D59
:1011C0001596FC93EE9314974481558117965C9382
:1011D0004E931697C481D5813B832A83358324831C
:1011E0005696EC9156978E9FF0011124E450FF4FD4
:1011F0001B96FC93EE931A9780818F5F8083E0911A
:10120000C200F091C30056969C918689891710F40C
:101210000E94931081E001C080E00F900FBEDF912B
:10122000CF911F910F91FF90EF90DF90CF90BF90E3
:10123000AF909F908F9008958F929F92AF92BF92A0
:10124000CF92DF92EF92FF920F931F93CF93DF9392
:10125000DC0170E0E114F10481F0FB01EE0FFF1FEF
:10126000EE0FFF1FE80FF91F81A092A0A3A0B4A06A
:10127000E70188829982AA82BB82FD01E60FF71FEF
:1012800085A192E095A302301105E9F0A8F40130A0
:101290001105D9F5660F771F660F771FFD01E60F61
:1012A000F71F81A092A0A3A0B4A0BA01A901482968
:1012B00059296A297B2916C003301105D9F0043059
:1012C0001105A9F022C0660F771F660F771FFD0179
:1012D000E60FF71F41A152A163A174A14F5F5F4FB9
:1012E0006F4F7F4F41A352A363A374A30EC08230FC
:1012F00009F4A0C0660F771F660F771FFD01E60F88
:10130000F71F21A332A343A354A3813011F081E03E
:1013100092C08091C400811158C01A96ED91FC9141
:101320001B9714968D919C91159716962D913C9133
:101330001797EC013D832C831696CD91DC9117977E
:101340009B838A839D012E5F3F4F8181928182170B
:10135000930711F4D283C1831B961C921E921A9795
:101360008081815080835696EC9156978091CF0072
:101370008E1710F4E093CF0089E08E9FF0011124C6
:10138000E450FF4F0180F281E02D1596FC93EE931F
:1013900014974481558117965C934E931697C48198
:1013A000D5813B832A83358324835696EC915697C7
:1013B0008E9FF0011124E450FF4F1B96FC93EE9397
:1013C0001A9780818F5F808321C0E091DE00F091C9
:1013D000DF001F96FC93EE931E97848195815196B2
:1013E0009C938E935097C481D581CD010C969B839D
:1013F0008A83958384838DED90E055969C938E939C
:1014000054978091DD008F5F8093DD00E091C200F2
:10141000F091C30056969C918689891708F077CF82
:10142000C114D10419F081E0F601808381E080933A
:10143000CB0001C080E0DF91CF911F910F91FF9011
:10144000EF90DF90CF90BF90AF909F908F900895D6
:101450000F931F93CF93DF93FC01A62FB0E0EC0115
:10146000CA0FDB1F8DA192E09DA3AA0FBB1FAA0F7D
:10147000BB1FAE0FBF1F91960D911D912D913C91F9
:1014800094970F5F1F4F2F4F3F4F91960D931D93D2
:101490002D933C939497813009F086C08091C400CD
:1014A00081114FC0A285B3858481958126813781C2
:1014B000EC013D832C83C681D7819B838A839F0166
:1014C0002E5F3F4F11968D919C9112978217930733
:1014D00021F41296DC93CE931197138612868C9189
:1014E00081508C93A6898091CF008A1710F4A09325
:1014F000CF0089E08A9FD0011124A450BF4F1196DC
:101500000D90BC91A02DB583A48314966D917C9110
:101510001597778366831496CD91DC9115973B835D
:101520002A8315963C932E931497A6898A9FD001FF
:101530001124A450BF4FB387A2878C918F5F8C93E7
:1015400021C0A091DE00B091DF00B787A687149676
:101550008D919C911597918B808B1496CD91DC91F8
:101560001597CF010C969B838A8315969C938E9337
:1015700014978DED90E0958B848B8091DD008F5FCB
:101580008093DD00A091C200B091C3009689569669
:101590008C91891748F44115510519F081E0FA0141
:1015A000808381E08093CB00DF91CF911F910F91D9
:1015B0000895009721F48091C2009091C3000FB666
:1015C000F8940F92FC01E60FF11D85A1823019F409
:1015D00015A281E001C080E00F900FBE0895CF9268
:1015E000DF92EF92FF920F931F93009721F4809167
:1015F000C2009091C3000FB6F8940F92FC0174E002
:10160000679FE00DF11D112461A172A183A194A136
:10161000C1A0D2A0E3A0F4A089019A010095109581
:10162000209530950C211D212E213F2101A312A3CD
:1016300023A334A30F900FBE1F910F91FF90EF9043
:10164000DF90CF9008950FB6F8940F92FC01928D21
:101650000F900FBE81E0911180E008950F931F93CA
:10166000CF93DF93EC01042F1A8D4C8D4423B1F1FD
:1016700050E0011115C08A819B810E9456182C8D63
:101680008A819B81820F911D9B838A832C813D815E
:101690008217930718F1888199819B838A831EC0E2
:1016A0008E819F810E9456188C8D90E09195819536
:1016B00091092E813F81280F391F3F832E83488156
:1016C00059812417350730F42C813D81820F931FF7
:1016D0009F838E83023011F4111111501F5F1A8FF6
:1016E00080E0DF91CF911F910F910895FC01CB0114
:1016F000448D4423A1F050E026813781240F351F0B
:1017000037832683648175812617370720F020816F
:10171000318137832683668177810C94561808952A
:10172000EF92FF921F93CF93DF93EC010FB6F894E3
:101730000F921E8D7C0181E1E80EF11C11165CF404
:101740008989882341F0C7010E94880581110E9480
:1017500009071150F3CF8FEF8E8F0F900FBE0FB68A
:10176000F8940F921D8D7E0188E0E80EF11C111691
:101770005CF48885882341F0C7010E9488058111A7
:101780000E9409071150F3CF8FEF8D8F0F900FBE7E
:10179000DF91CF911F91FF90EF900895CF93DF934A
:1017A000EC01892B09F43EC09B8D992309F43AC0C2
:1017B0007C8D0FB6F8940F92488159819A01979FBA
:1017C000200D311D11243D832C831A8E5B834A83A7
:1017D000892F90E00197789F9001799F300D112417
:1017E000CA01820F931F9F838E838FEF8D8F8E8F01
:1017F00061110CC08885882389F0CE0108960E946B
:101800008805882359F00E94931008C0CE010896DD
:101810000E94620FCE0141960E94620F0F900FBE90
:1018200081E001C080E0DF91CF9108950F931F9375
:10183000CF93DF93811103C0C0E0D0E019C0162F11
:10184000082F869FC00111244F960E944B11EC0176
:10185000009791F3111103C09983888303C04F96B9
:10186000998388830B8F1C8F61E0CE010E94CE0B81
:10187000CE01DF91CF911F910F910895CF938823CF
:1018800061F0861750F0C62F42E060E00E94160C0F
:10189000009729F0FC01C28F02C080E090E0CF9158
:1018A0000895AF92BF92CF92DF92FF920F931F9352
:1018B000CF93DF9300D000D01F92CDB7DEB78C015D
:1018C0006B015D834C83F22E80E0580198E0A90EF5
:1018D000B11C0FB6F8940F92F801228D938D291741
:1018E00018F0F2E0FF1214C04F2DB601C8010E949B
:1018F0002E0BF8019189992321F0C80141960E948D
:10190000880581110E9493100F900FBE81E050C096
:101910002C813D81232B19F40F900FBE48C08111FB
:1019200004C0CE0101960E94D2060F900FBE0E9405
:10193000A0020FB6F8940F92F801858D8F3F09F43D
:10194000158EF801868D8F3F09F4168E0F900FBE0D
:10195000BE016C5F7F4FCE0101960E94DD068111B2
:1019600021C00FB6F8940F92F801928D0F900FBE20
:10197000838D981311C06C817D81C5010E9434054F
:10198000C8010E94900B0E94C103882311F081E0DE
:10199000A0CF0E949310FBCFC8010E94900B0E9421
:1019A000C103F5CFC8010E94900B0E94C10380E0E3
:1019B0000F900F900F900F900F90DF91CF911F918C
:1019C0000F91FF90DF90CF90BF90AF900895EF926E
:1019D000FF921F93CF93DF93EC019A8D8B8D981715
:1019E00010F0223009F57A011E8D8A8D422FCE012A
:1019F0000E942E0B1F3F81F48989882399F0CE0124
:101A000041960E948805882369F0E114F10451F0A1
:101A100081E0F701808309C00E94B502181710F415
:101A20001F5F1E8F81E001C080E0DF91CF911F9189
:101A3000FF90EF900895EF92FF921F93CF93DF9363
:101A4000EC018A8D9B8D8917F0F47B011E8D8F5FD1
:101A50008A8F1F3F81F48989882399F0CE014196AE
:101A60000E948805882369F0E114F10451F081E0B7
:101A7000F701808309C00E94B502181710F41F5F98
:101A80001E8F81E001C080E0DF91CF911F91FF9018
:101A9000EF900895AF92BF92CF92DF92FF920F9393
:101AA0001F93CF93DF9300D000D01F92CDB7DEB746
:101AB0008C016B015D834C8380E0580191E1A90E9C
:101AC000B11C0FB6F8940F92F801F28CFF20A9F028
:101AD000B601C8010E94760BFA94F801F28E808557
:101AE000882339F0C80108960E94880581110E9458
:101AF00093100F900FBE81E050C02C813D81232BAD
:101B000019F40F900FBE48C0811104C0CE01019698
:101B10000E94D2060F900FBE0E94A0020FB6F8944A
:101B20000F92F801858D8F3F09F4158EF801868D8F
:101B30008F3F09F4168E0F900FBEBE016C5F7F4F72
:101B4000CE0101960E94DD0681111CC0C8010E94D1
:101B5000230B882389F06C817D81C5010E943405A7
:101B6000C8010E94900B0E94C103882311F081E0FC
:101B7000A8CF0E949310FBCFC8010E94900B0E9437
:101B8000C103F5CFC8010E94900B0E94C103C80198
:101B90000E94230B882359F380E00F900F900F9041
:101BA0000F900F90DF91CF911F910F91FF90DF90D9
:101BB000CF90BF90AF900895EF92FF920F931F9335
:101BC000CF93DF9300D000D01F92CDB7DEB78C014A
:101BD0007D836C8390E0780181E1E80EF11C0FB603
:101BE000F8940F92F801828D882381F08150828FC2
:101BF0008085882339F0C80108960E9488058111E4
:101C00000E9493100F900FBE81E050C02C813D8147
:101C1000232B19F40F900FBE48C0911104C0CE01C0
:101C200001960E94D2060F900FBE0E94A0020FB62E
:101C3000F8940F92F801858D8F3F09F4158EF80105
:101C4000868D8F3F09F4168E0F900FBEBE016C5F1C
:101C50007F4FCE0101960E94DD0681111CC0C80194
:101C60000E94230B882389F06C817D81C7010E942B
:101C70003405C8010E94900B0E94C103882311F013
:101C800091E0ADCF0E949310FBCFC8010E94900B52
:101C90000E94C103F5CFC8010E94900B0E94C103AE
:101CA000C8010E94230B882359F380E00F900F9006
:101CB0000F900F900F90DF91CF911F910F91FF9098
:101CC000EF900895CF92DF92EF92FF920F931F93C0
:101CD000CF93DF9300D000D01F92CDB7DEB78C0139
:101CE0007B015D834C8380E0680191E1C90ED11CCA
:101CF0000FB6F8940F92F801928D9923B9F0C6802F
:101D0000D780B701C8010E94760BF801D782C6823E
:101D10008189882339F0C80141960E948805811184
:101D20000E9493100F900FBE81E050C02C813D8126
:101D3000232B19F40F900FBE48C0811104C0CE01AF
:101D400001960E94D2060F900FBE0E94A0020FB60D
:101D5000F8940F92F801858D8F3F09F4158EF801E4
:101D6000868D8F3F09F4168E0F900FBEBE016C5FFB
:101D70007F4FCE0101960E94DD0681111CC0C80173
:101D80000E94230B882389F06C817D81C6010E940B
:101D90003405C8010E94900B0E94C103882311F0F2
:101DA00081E0A6CF0E949310FBCFC8010E94900B48
:101DB0000E94C103F5CFC8010E94900B0E94C1038D
:101DC000C8010E94230B882359F380E00F900F90E5
:101DD0000F900F900F90DF91CF911F910F91FF9077
:101DE000EF90DF90CF900895EF92FF920F931F93A3
:101DF000CF93DF93FC01028D002309F17A01EC01FE
:101E0000158D0E94760B01500A8F1F3F81F4888543
:101E1000882399F0CE0108960E948805882369F0EE
:101E2000E114F10451F081E0F701808309C00E94C0
:101E3000B502181710F41F5F1D8F81E001C080E00C
:101E4000DF91CF911F910F91FF90EF9008950F9325
:101E50001F93CF93DF93FC01228D222349F0EC01E5
:101E6000068117810E94760B1F830E8381E001C0DB
:101E700080E0DF91CF911F910F9108950FB6F894F4
:101E80000F92FC01828D0F900FBE08950FB6F8944B
:101E90000F92FC01228D0F900FBE838D821B08953F
:101EA000FC01828D08950C947F11FC01928D81E0DC
:101EB000911180E00895FC01928D81E0238D29131A
:101EC00080E00895FC010396928381832FEF3FEF1A
:101ED0003483238396838583908787831082089534
:101EE000FC01118610860895CF93DF939C01FB01BE
:101EF000DC011196CD91DC911297D383C2838C8142
:101F00009D81958384838C819D81DC0113967C93D4
:101F10006E9312977D836C8331872087F9018081CE
:101F20008F5F8083DF91CF9108950F931F93CF939D
:101F3000DF938C01FB01808191818F3F2FEF92070E
:101F400021F4E801AF81B8850EC0D801139612962E
:101F50002D913C911397E901488159818417950788
:101F600010F0D901F4CF12968D919C911397938321
:101F70008283EC01FD83EC83B583A4831396FC93E9
:101F8000EE93129711870087F80180818F5F80831D
:101F9000DF91CF911F910F910895CF93DF93FC01B3
:101FA000A085B1858281938124813581EC013D83B7
:101FB0002C83C481D5819B838A8311968D919C91BA
:101FC0001297E817F90721F41296DC93CE93119734
:101FD000118610868C9181508C938C91DF91CF91DA
:101FE000089531E1FC013083319722E2208331975B
:101FF000A3E3A08331976083319770833197108278
:10200000319760E8608331971082319762E0608396
:10201000319763E06083319764E06083319765E0D6
:102020006083319766E06083319767E06083319722
:1020300068E06083319769E06083319760E1608395
:1020400031973083319732E13083319733E13083F8
:10205000319734E13083319735E13083319736E180
:102060003083319737E13083319738E130833197CE
:1020700039E13083319730E23083319731E2308378
:1020800031972083319723E2208331974083319722
:102090005083319726E22083319727E220833197BE
:1020A00028E22083319729E22083319720E320839F
:1020B000319721E32083869708951BBC89EF8ABD61
:1020C0008BE08EBD89B7806189BFA091C200B091BD
:1020D000C300CD91CDBFDD91DEBFFF91EF91DF91C8
:1020E000CF91BF91AF919F918F917F916F915F91B0
:1020F0004F913F912F911F910F91FF90EF90DF90A3
:10210000CF90BF90AF909F908F907F906F905F9097
:102110004F903F902F901F900F900FBE0F900895FB
:1021200081E0089508950F920FB6F8940F921F92D0
:1021300011242F923F924F925F926F927F928F92D3
:102140009F92AF92BF92CF92DF92EF92FF920F9346
:102150001F932F933F934F935F936F937F938F932F
:102160009F93AF93BF93CF93DF93EF93FF93A09190
:10217000C200B091C3000DB60D920EB60D920E9432
:10218000F104A091C200B091C300CD91CDBFDD910B
:10219000DEBFFF91EF91DF91CF91BF91AF919F9102
:1021A0008F917F916F915F914F913F912F911F91EF
:1021B0000F91FF90EF90DF90CF90BF90AF909F90E6
:1021C0008F907F906F905F904F903F902F901F90D7
:1021D0000F900FBE0F9008950F920FB6F8940F92C4
:1021E0001F9211242F923F924F925F926F927F9293
:1021F0008F929F92AF92BF92CF92DF92EF92FF9217
:102200000F931F932F933F934F935F936F937F93FE
:102210008F939F93AF93BF93CF93DF93EF93FF93EE
:10222000A091C200B091C3000DB60D920EB60D92F2
:102230000E94C00281110E94F104A091C200B091DD
:10224000C300CD91CDBFDD91DEBFFF91EF91DF9156
:10225000CF91BF91AF919F918F917F916F915F913E
:102260004F913F912F911F910F91FF90EF90DF9031
:10227000CF90BF90AF909F908F907F906F905F9026
:102280004F903F902F901F900F900FBE0F9008958A
:102290000E94EC101895CF93DF93EC010E94A002EE
:1022A0008091440190914501892B31F488E491E0BB
:1022B00090934501809344012097C9F020914601F5
:1022C00030914701CE01820F931F8F3346E0940770
:1022D00070F42817390758F4C0914401D091450192
:1022E000C20FD31F909347018093460102C0C0E004
:1022F000D0E00E94C103CE01DF91CF9108950895EF
:1023000010924701109246010895209146013091A4
:1023100047018FE396E0821B930B089541E062E052
:1023200080E00E94A71285E08A95F1F7000040E066
:1023300062E080E00C94A712CF93C82F482F417021
:1023400060E081E00E94A712C1FB442740F961E0F0
:1023500081E00E94A712C2FB442740F962E081E0BD
:102360000E94A712C3FB442740F964E081E0CF91AB
:102370000C94A712CF93C82F82958F700E949C1146
:1023800040E063E080E00E94A7120E948E118FE877
:1023900091E00197F1F700C000008C2F8F700E9430
:1023A0009C110E948E118FE891E00197F1F700C017
:1023B0000000CF91089541E060E081E00E94631247
:1023C00041E061E081E00E94631241E062E081E06F
:1023D0000E94631241E064E081E00E94631241E0E8
:1023E00063E080E00E94631241E062E080E00E94CE
:1023F000631240E062E080E00E94A71283E30E9443
:10240000BA1182E30E94BA1188E20E94BA118EE0EA
:102410000E94BA1181E00E94BA118FE39FE10197F7
:10242000F1F700C0000086E00C94BA1181E00E9430
:10243000BA1183E00E94BA118FE39FE10197F1F78F
:1024400000C000000895CF93C82F82958F700E941E
:102450009C1141E063E080E00E94A7120E948E116F
:102460008FE891E00197F1F700C000008C2F8F708A
:102470000E949C110E948E118FE891E00197F1F764
:1024800000C00000CF910895CF93DF93EC018991B4
:10249000882319F00E942312FACFDF91CF9108957B
:1024A00080EC0C94BA118150860F0C94BA11F894F8
:1024B0000895789408958FB78F778FBF08958FB759
:1024C00080688FBF08958130A9F028F0823009F12B
:1024D000833071F108952AB381E090E001C0880F44
:1024E0006A95EAF7411103C08095822301C0822BCF
:1024F0008ABB089527B381E090E001C0880F6A95F8
:10250000EAF7411103C08095822301C0822B87BB6B
:10251000089524B381E090E001C0880F6A95EAF73E
:10252000411103C08095822301C0822B84BB089592
:1025300021B381E090E001C0880F6A95EAF741116C
:1025400003C08095822301C0822B81BB0895813016
:10255000A9F028F0823009F1833071F108952BB38E
:1025600081E090E001C0880F6A95EAF7411103C04D
:102570008095822301C0822B8BBB089528B381E014
:1025800090E001C0880F6A95EAF7411103C0809579
:10259000822301C0822B88BB089525B381E090E09F
:1025A00001C0880F6A95EAF7411103C08095822324
:1025B00001C0822B85BB089522B381E090E001C069
:1025C000880F6A95EAF7411103C08095822301C004
:1025D000822B82BB0895813081F028F08230B9F0DF
:1025E0008330F9F008952BB381E090E001C0880FAB
:1025F0006A95EAF782278BBB089528B381E090E0C3
:1026000001C0880F6A95EAF7822788BB089525B331
:1026100081E090E001C0880F6A95EAF7822785BBC8
:10262000089522B381E090E001C0880F6A95EAF72F
:10263000822782BB0895813069F028F0823089F0CA
:102640008330B1F00895611102C01ABA08958FEF76
:102650008ABB0895611102C017BA08958FEF87BB36
:102660000895611102C014BA08958FEF84BB0895D4
:10267000611102C011BA08958FEF81BB08958130B6
:1026800041F028F0823039F0833039F008956BBB87
:10269000089568BB089565BB089562BB08958130B5
:1026A00049F030F0823041F08330C1F420B305C0EE
:1026B00029B303C026B301C023B381E090E0062E06
:1026C00002C0880F991F0A94E2F730E08223932317
:1026D00002C0959587956A95E2F7089580E0089580
:1026E000813051F028F0823059F0833069F008953C
:1026F0008BB380958BBB089588B3809588BB089574
:1027000085B3809585BB089582B3809582BB08957B
:10271000813049F030F0823041F0833041F480B3B1
:10272000089589B3089586B3089583B3089580E02A
:102730000895CF93DF9300D0CDB7DEB7262F1A824E
:102740001982BC0180E090E0213039F40E945B17CF
:1027500020E030E040E051E406C00E945B1720E03A
:1027600030E040E851E40E94E9179B01AC0160E0D1
:1027700074E284E79BE40E94BA1620E030E040E86F
:102780005FE30E944D160E942C177A83698380B5FF
:102790008F7780BD89819A8190BD89819A8189B91D
:1027A00080B5806880BD0F900F90DF91CF91089524
:1027B0009091D707813011F4977F01C09860909372
:1027C000D7070895813041F018F0823051F0089514
:1027D0008091D7078F7C08C08091D7078F7E806259
:1027E00003C08091D70780638093D707089587300F
:1027F000A1F028F4853041F0863051F008958830FA
:1028000089F08930B1F008959091D707997F0DC074
:102810009091D7079B7F926008C09091D7079D7FCA
:10282000946003C09091D70796609093D707529811
:1028300006C09091D70796609093D707529A8093DD
:10284000D6070895EF92FF920F931F93CF93DF93D4
:10285000CDB7DEB72C970FB6F894DEBF0FBECDBF55
:10286000E982FA820B831C832D833E834F83588732
:1028700069877A878B879C87899A602F89819A815B
:102880000E949913013009F4599A8C81813009F41E
:10289000589A8D81813021F4579A8FB780688FBF05
:1028A0008E81813021F4569A8FB780688FBF8F81D7
:1028B000813021F4559A8FB780688FBF8885813029
:1028C00009F4549A8985813009F4539A8A850E94C3
:1028D000F7138B850E94E2138C850E94D813809198
:1028E000D70780688093D70780BD8EEA97E00E9463
:1028F000721588E897E02C960FB6F894DEBF0FBEED
:10290000CDBFDF91CF911F910F91FF90EF900C946D
:1029100072155D9BFECF2091D607293019F450988F
:1029200090FD509A8CB908955F9BFECF2091D607F9
:10293000293059F43BB12AB14CB13C7149F4269588
:102940002170922F80E0842B08958CB190E008953F
:102950008FEF9FEF0895CF93DF93EC018991882348
:1029600031F0082E000C990B0E948914F7CFDF91EB
:10297000CF9108955D9B09C02091D607293019F4A5
:10298000509890FD509A8CB90895BC018EEA97E05A
:102990000C94DD1588E897E00E949C15811104C015
:1029A00088E897E00C94AB158EE090E008951F92B4
:1029B0000F920FB60F9211242F933F934F935F9373
:1029C0006F937F938F939F93AF93BF93EF93FF93F7
:1029D0008EEA97E00E949C1581110CC08EEA97E068
:1029E0000E94AB152091D607293019F4509890FD1C
:1029F000509A8CB9FF91EF91BF91AF919F918F91B8
:102A00007F916F915F914F913F912F910F900FBEEA
:102A10000F901F9018951F920F920FB60F921124CE
:102A20002F933F934F935F936F937F938F939F93D6
:102A3000AF93BF93EF93FF930E94D714FF91EF9151
:102A4000BF91AF919F918F917F916F915F914F91C6
:102A50003F912F910F900FBE0F901F9018951F92CE
:102A60000F920FB60F9211242F933F934F935F93C2
:102A70006F937F938F939F93AF93BF93CF93DF9386
:102A8000EF93FF9388E897E00E94CE15811117C05D
:102A90008091D607893069F49BB18AB12CB19C71C1
:102AA00071F486958170D82F80E0C82FBE01622B0B
:102AB00002C06CB170E088E897E00E94DD15FF91DC
:102AC000EF91DF91CF91BF91AF919F918F917F91C6
:102AD0006F915F914F913F912F910F900FBE0F908B
:102AE0001F901895FC0115A214A211A210A213A206
:102AF00012A20895FC01208131812F5F3F4F2031C8
:102B0000310519F4118210820895318320830895CC
:102B1000FC0120813181215031092F3F310529F4F9
:102B20008FE090E09183808308953183208308951E
:102B3000FC01808191810895FC0184A195A1892BDC
:102B400041F481E042A153A120A131A142175307D2
:102B500009F080E008950F931F93CF93DF93EC016A
:102B60000E949C15811113C0E8A1F9A1EE0FFF1F6F
:102B7000EC0FFD1F00811181CE0180960E947A1515
:102B80008CA19DA101979DA38CA3C80102C08EE0DA
:102B900090E0DF91CF911F910F910895FC0184A1E6
:102BA00095A1409741F481E042A153A120A131A118
:102BB0004217530709F080E008950F931F93CF93B6
:102BC000DF93EC018B010E94CE15811113C0EAA1A5
:102BD000FBA1EE0FFF1FEC0FFD1F11830083CE0141
:102BE00082960E947A158CA19DA101969DA38CA32B
:102BF00081E001C08FE0DF91CF911F910F91089587
:102C000060E080E10E943E0C9093D5078093D4074A
:102C10000E94DB11E0906000F09061000091620082
:102C2000109163002091640030916500409166002E
:102C300050916700609168007091690080916A000E
:102C400090916B000E942214E12CF12C01E020E015
:102C500030E040E850E06DE670E089E490E00E94EA
:102C60000401813021F086E790E00E944412E12CBB
:102C7000F12C02E020E030E040E850E061E870E054
:102C80008CE690E00E940401813021F08BE890E016
:102C90000E9444120E947202FFCF5058BB27AA27FD
:102CA0000E9465160C94AF170E94A11738F00E947D
:102CB000A81720F039F49F3F19F426F40C949E17BE
:102CC0000EF4E095E7FB0C949817E92F0E94C017CB
:102CD00058F3BA17620773078407950720F079F451
:102CE000A6F50C94E2170EF4E0950B2EBA2FA02D4A
:102CF0000B01B90190010C01CA01A0011124FF27A9
:102D0000591B99F0593F50F4503E68F11A16F040A3
:102D1000A22F232F342F4427585FF3CF46953795A2
:102D20002795A795F0405395C9F77EF41F16BA0B67
:102D3000620B730B840BBAF09150A1F0FF0FBB1F15
:102D4000661F771F881FC2F70EC0BA0F621F731F5E
:102D5000841F48F4879577956795B795F7959E3FBB
:102D600008F0B0CF9395880F08F09927EE0F97954C
:102D7000879508950E94CE160C94AF170E94A8174D
:102D800058F00E94A11740F029F45F3F29F00C94FD
:102D9000981751110C94E3170C949E170E94C017BA
:102DA00068F39923B1F3552391F3951B550BBB277A
:102DB000AA2762177307840738F09F5F5F4F220FBF
:102DC000331F441FAA1FA9F335D00E2E3AF0E0E8B6
:102DD00032D091505040E695001CCAF72BD0FE2F00
:102DE00029D0660F771F881FBB1F26173707480794
:102DF000AB07B0E809F0BB0B802DBF01FF2793584C
:102E00005F4F3AF09E3F510578F00C9498170C9460
:102E1000E3175F3FE4F3983ED4F386957795679583
:102E2000B795F7959F5FC9F7880F911D9695879580
:102E300097F90895E1E0660F771F881FBB1F62179F
:102E400073078407BA0720F0621B730B840BBA0B5D
:102E5000EE1F88F7E09508950E94C81788F09F57E5
:102E600098F0B92F9927B751B0F0E1F0660F771FAE
:102E7000881F991F1AF0BA95C9F714C0B13091F0A4
:102E80000E94E217B1E008950C94E217672F782FA3
:102E90008827B85F39F0B93FCCF386957795679569
:102EA000B395D9F73EF490958095709561957F4FD5
:102EB0008F4F9F4F0895E89409C097FB3EF490957B
:102EC0008095709561957F4F8F4F9F4F9923A9F003
:102ED000F92F96E9BB279395F69587957795679592
:102EE000B795F111F8CFFAF4BB0F11F460FF1BC0D6
:102EF0006F5F7F4F8F4F9F4F16C0882311F096E969
:102F000011C0772321F09EE8872F762F05C0662316
:102F100071F096E8862F70E060E02AF09A95660FCF
:102F2000771F881FDAF7880F9695879597F9089588
:102F300097F99F6780E870E060E008959FEF80EC6C
:102F4000089500240A94161617061806090608950F
:102F500000240A9412161306140605060895092E75
:102F60000394000C11F4882352F0BB0F40F4BF2BE4
:102F700011F460FF04C06F5F7F4F8F4F9F4F089524
:102F800057FD9058440F551F59F05F3F71F047951A
:102F9000880F97FB991F61F09F3F79F087950895FF
:102FA000121613061406551FF2CF4695F1DF08C01E
:102FB000161617061806991FF1CF8695710561053B
:102FC00008940895E894BB2766277727CB0197F9E3
:102FD00008950E94FC170C94AF170E94A11738F0B7
:102FE0000E94A81720F0952311F00C9498170C94C8
:102FF0009E1711240C94E3170E94C01770F3959F3D
:10300000C1F3950F50E0551F629FF001729FBB27DF
:10301000F00DB11D639FAA27F00DB11DAA1F649F7B
:103020006627B00DA11D661F829F2227B00DA11D2E
:10303000621F739FB00DA11D621F839FA00D611DB4
:10304000221F749F3327A00D611D231F849F600DD5
:10305000211D822F762F6A2F11249F5750409AF0FE
:10306000F1F088234AF0EE0FFF1FBB1F661F771F8A
:10307000881F91505040A9F79E3F510580F00C9455
:1030800098170C94E3175F3FE4F3983ED4F38695CA
:1030900077956795B795F795E7959F5FC1F7FE2BF5
:1030A000880F911D9695879597F90895FB01DC018E
:1030B00002C001900D9241505040D8F70895F89405
:0230C000FFCF40
:1030C200802500000000000101080001076C636414
:1030D2005F7461736B004661696C656420207431B2
:1030E20000756172745F7461736B004661696C652F
:0C30F20064202074320049444C4500006A
:00000001FF
