:100000000C942A000C9447000C9447000C94470071
:100010000C9447000C9447000C9447000C942C114E
:100020000C9447000C9447000C9447000C94470034
:100030000C9447000C9447000C9447000C94470024
:100040000C9447000C9447000C9447000C94470014
:100050000C94470011241FBECFE5D8E0DEBFCDBF12
:1000600010E0A0E6B0E0E4EEF7E202C005900D92E9
:10007000A43CB107D9F725E0A4ECB0E001C01D9283
:10008000AC3FB207E1F70E94AA130C94F0130C9452
:10009000000060E070E08091C4009091C5000E9473
:1000A000C00D8BE690E00E94281260E070E0809125
:1000B000C4009091C5000E94FF0C81E090E00E9476
:1000C000BC04E7CF60E070E08091C4009091C5006F
:1000D0000E94C00D80E890E00E94281260E070E06D
:1000E0008091C4009091C5000E94FF0C81E090E0D7
:1000F0000E94BC04E7CFE091EC00F091ED0080811C
:10010000811103C08FEF9FEF09C0E091EC00F091E7
:10011000ED000580F681E02D808191819093CC00E7
:100120008093CB0008950F931F93CF93DF93EC013F
:100130000091D4001091D5008091C6009091C70025
:1001400002960E94B10FC00FD11FE091C600F0913E
:10015000C700D383C2836091C6007091C700C017E7
:10016000D10760F48091EA009091EB006E5F7F4FC1
:10017000DF91CF911F910F910C94790F8091EC003A
:100180009091ED006E5F7F4F0E94790F8091CB00C0
:100190009091CC00C817D90720F4D093CC00C0931D
:1001A000CB00DF91CF911F910F9108958091D700DF
:1001B0008823E1F30FB6F8940F92E091DD00F091FF
:1001C000DE00C681D781CE0102960E94B10F8091D8
:1001D000D60081508093D6008091D70081508093C3
:1001E000D7000F900FBE8F89988D0E946311CE01AA
:1001F0000E946311DBCF4F925F926F927F928F923A
:100200009F92AF92BF92CF92DF92EF92FF920F93A5
:100210001F93CF93DF934C016B015A012901CA014F
:100220000E942F113C01892B09F4E5C086E290E081
:100230000E942F11EC01892BB1F086E2DE011D92A4
:100240008A95E9F7788E6F8AB1E0AB1AB108A60CEF
:10025000B71CC114D104C1F0BE01675E7F4FF60127
:10026000C601089607C0C3010E946311C4C08E175F
:100270009F0749F09F014191DB014D93BD01D901D9
:100280002C912111F4CF18A2083008F007E00E8B52
:100290006E01B2E0CB0ED11CC6010E94540FCE01FC
:1002A0000C960E94540FD987C88788E090E0801B85
:1002B00091099D878C87DB8BCA8BA201B401C50194
:1002C0000E94D50F99838883E114F10419F0F70196
:1002D000D183C0830FB6F8940F928091D6008F5FC0
:1002E0008093D6008091C6009091C700892B99F524
:1002F000D093C700C093C6008091D6008130D9F555
:1003000000E011E088E4E82E81E0F82EC8010E94A8
:10031000460F075F1F4FE016F106C1F787EF90E029
:100320000E94460F8EEE90E00E94460F81EE90E014
:100330000E94460F88ED90E00E94460F87EF90E004
:100340009093ED008093EC008EEE90E09093EB00A4
:100350008093EA0010C08091D20081110CC0E0911E
:10036000C600F091C70096898E89891720F0D09336
:10037000C700C093C6008091CD008F5F8093CD00F1
:10038000EE898091D3008E1710F4E093D30089E0BA
:100390008E9FF0011124E050FF4F0180F281E02D8B
:1003A000FD83EC83248135813F832E83A481B58135
:1003B0001396DC92CE921297D582C482EE898E9FDC
:1003C000F0011124E050FF4FFB87EA8780818F5FA7
:1003D00080830F900FBE8091D200882351F0E0916E
:1003E000C600F091C70096898E89981710F40E9474
:1003F000771081E001C08FEFDF91CF911F910F91B6
:10040000FF90EF90DF90CF90BF90AF909F908F9034
:100410007F906F905F904F9008950F931F93CF93AD
:10042000DF93EC010FB6F8940F92892B21F4C09161
:10043000C600D091C7008E010E5F1F4FC8010E94F9
:10044000B10F8C899D89892B21F0CE010C960E94D9
:10045000B10F8091CD008F5F8093CD008091C60059
:100460009091C700C817D90759F4B80188ED90E0FA
:100470000E94580F8091D7008F5F8093D70007C0EC
:100480008091D60081508093D6000E947B000F900F
:100490000FBE8091C6009091C700C817D90739F0E8
:1004A0008F89988D0E946311CE010E946311809103
:1004B000D200882349F08091C6009091C700C817E8
:1004C000D90711F40E947710DF91CF911F910F91FE
:1004D0000895EF92FF920F9389ECE82E80E0F82EBA
:1004E00000E020E030E045E550E06FEB70E086EDA5
:1004F00090E00E94FB00813079F4F8942FEF3FEFF9
:100500003093CC002093CB008093D2001092D50082
:100510001092D4000E944110809160000F91FF90D2
:10052000EF900895F8941092D2000C947610809178
:10053000C8008F5F8093C80008950FB6F8940F929B
:100540008091D4009091D5000F900FBE08958091B6
:10055000D4009091D50008958091D6000895009719
:1005600021F48091C6009091C70049960895CF92DA
:10057000DF92EF92FF920F931F93CF93DF938091BF
:10058000C8008111E2C0C091D400D091D5006E01A5
:100590008FEFC81AD80AD092D500C092D400C114E7
:1005A000D104B9F48091EC009091ED002091EA0023
:1005B0003091EB003093ED002093EC009093EB0032
:1005C0008093EA008091CE008F5F8093CE000E94DE
:1005D0007B008091CB009091CC00C816D90608F41E
:1005E0009EC080E069E0E091EC00F091ED00908128
:1005F000911103C02FEF3FEF0FC0E091EC00F0919D
:10060000ED000580F681E02D0680F781E02D228146
:100610003381C216D30628F43093CC002093CB004C
:100620007FC0C285D3852481358146815781D90118
:1006300015965C934E93149746815781DA01139671
:100640003C932E9312979F012E5F3F4F09811A8191
:100650000217130711F45A8349831386128698816F
:1006600091509883A489B5891097F9F046855785EC
:1006700000891189EA011D830C8300891189E80131
:100680005B834A831196ED90FC901297AF01445F13
:100690005F4FE416F50621F412961C930E93119702
:1006A000158A148A9C9191509C93A6899091D300AD
:1006B0009A1710F4A093D3006A9FD0011124A05080
:1006C000BF4F11960D90BC91A02DB583A4831496B5
:1006D0004D915C9115975783468314964D915C918B
:1006E0001597EA013B832A8315963C932E93149722
:1006F000A6896A9FD0011124A050BF4FB387A2875B
:100700009C919F5F9C93A091C600B091C7002689E1
:1007100056969C91921708F066CF81E064CF80E0F6
:10072000E091C600F091C700E689D9E0ED9FF001A5
:100730001124E050FF4F9081923008F081E09091B9
:10074000CF00992361F081E00AC08091D0009091A0
:10075000D10001969093D1008093D00080E0DF918A
:10076000CF911F910F91FF90EF90DF90CF90089560
:10077000EF92FF920F931F93CF93DF930FB6F894EE
:100780000F928091C80081508093C8008091C8006A
:10079000882311F080E0B0C08091D6008823D1F387
:1007A000E090E600F090E700E0E0F0E039E041E0C2
:1007B0008091E100882309F481C0D7011696ED915C
:1007C000FC911797A489B589668577858089918979
:1007D000EB019D838C8380899189EC017B836A8303
:1007E000BF01645F7F4F11960D911C911297061700
:1007F000170721F412969C938E931197158A148AE9
:100800008C9181508C93A285B3858481958166817A
:100810007781EC017D836C8366817781EB019B831B
:100820008A83CF01029611960D911C911297081799
:10083000190721F412967C936E93119713861286F2
:100840002C9121502C93A6892091D3002A1710F4C3
:10085000A093D3003A9FD0011124A050BF4F11960E
:100860000D90BC91A02DB583A48314966D917C91BD
:1008700015977783668314966D917C911597EB019C
:100880009B838A8315969C938E931497A6893A9F8F
:10089000D0011124A050BF4FB387A2878C918F5FE6
:1008A0008C93A091C600B091C700968956968C9102
:1008B000981708F47DCF4093CF007ACFEF2B11F03B
:1008C0000E947B00C091D000D091D100209761F0B0
:1008D00011E00E94B70281111093CF002197C9F750
:1008E0001092D1001092D0008091CF00882309F49B
:1008F00051CF0E94771081E00F900FBEDF91CF9112
:100900001F910F91FF90EF9008950F931F93CF9336
:10091000DF938C01EB010E9497022091D40030916B
:10092000D500F80140815181CA018C0F9D1F241709
:10093000350728F48417950748F4C1E004C0C1E0E6
:100940008417950720F02817390708F0C0E0F80150
:1009500091838083CC2321F0821B930B0E94930010
:100960000E94B803811102C00E9477108C2FDF9182
:10097000CF911F910F910895CF93DF93EC01892BB5
:1009800019F40E94771009C00E949702CE010E94BC
:1009900093000E94B8038823A1F3DF91CF910895BB
:1009A000CF93DF93EC010E9497020FB6F8940F9259
:1009B0008091D0009091D100C80FD91FD093D10061
:1009C000C093D0000F900FBEDF91CF910C94B8036D
:1009D0008091C800882321F081E08093CF000895A2
:1009E0001092CF008091D30069E0482F50E0649FBF
:1009F0009001659F300D1124F901E050FF4F908167
:100A0000911102C08150F1CFA181B28112960D9057
:100A1000BC91A02DB283A1832D5F3E4FA217B307D7
:100A200031F412962D913C9113973283218399E0F2
:100A3000949FF001959FF00D1124E050FF4F01802D
:100A4000F281E02D268137813093C7002093C600C4
:100A50008093D3000895CF93DF93EB016091C6009C
:100A60007091C700645F7F4F0E94790FCE01DF91C4
:100A7000CF910C949300CF93DF93FC01A091C6001B
:100A8000B091C70070681D967C936E931C97A181EE
:100A9000B281C091C600D091C700BF87AE87C09118
:100AA000C600D091C70014968D919C911597998B93
:100AB000888B2091C6003091C7001496CD91DC91AF
:100AC0001597245F3F4F3B832A832091C6003091C6
:100AD000C700245F3F4F15963C932E931497A09127
:100AE000C600B091C7005596FC93EE935497908141
:100AF0009F5F9083CA01DF91CF910C949300CF93B5
:100B0000DF93DC011596ED91FC9116970680F78135
:100B1000E02DA489B5898685978520893189EC01E6
:100B20003D832C83C089D1899B838A83CF010C9616
:100B300011962D913C9112972817390721F412969E
:100B4000DC93CE931197158A148A2C9121502C9303
:100B50002091C80021114FC0A285B3858481958161
:100B600026813781EC013D832C83C681D7819B830D
:100B70008A839F012E5F3F4F11968D919C91129712
:100B80008217930721F41296DC93CE931197138664
:100B900012868C9181508C93A6898091D3008A17FC
:100BA00010F4A093D30089E08A9FD0011124A050B3
:100BB000BF4F11960D90BC91A02DB583A4831496C0
:100BC0004D915C911597578346831496CD91DC9196
:100BD00015973B832A8315963C932E931497A689E9
:100BE0008A9FD0011124A050BF4FB387A2878C9158
:100BF0008F5F8C931FC0A091E200B091E300B78794
:100C0000A68714962D913C911597318B208B1496C5
:100C1000CD91DC9115979B838A8315969C938E9337
:100C2000149781EE90E0958B848B8091E1008F5F2B
:100C30008093E100A091C600B091C70096895696B6
:100C40008C91891720F481E08093CF0001C080E06F
:100C5000DF91CF910895CF93DF93DC0170681196F7
:100C60007C936E931696ED91FC91179718964D9183
:100C70005C91199712962D913C91139714968D9132
:100C80009C911597E9019D838C8314968D919C917D
:100C90001597EC013B832A83EA0129813A81A21747
:100CA000B30711F49A83898319961C921E921897A0
:100CB000DA018C9181508C93A285B38584819581D2
:100CC00026813781EC013D832C83C681D7819B83AC
:100CD0008A839F012E5F3F4F11968D919C911297B1
:100CE0008217930721F41296DC93CE931197138603
:100CF00012868C9181508C93A6898091D3008A179B
:100D000010F4A093D30089E08A9FD0011124A05051
:100D1000BF4F11960D90BC91A02DB583A48314965E
:100D20004D915C911597578346831496CD91DC9134
:100D300015973B832A8315963C932E931497A68987
:100D40008A9FD0011124A050BF4FB387A2878C91F6
:100D50008F5F8C93A091C600B091C700968956967C
:100D60008C91891718F481E08093CF00DF91CF91A7
:100D700008950FB6F8940F922091CE00FC012083C5
:100D80002091D4003091D500328321830F900FBE83
:100D900008952091CE00FC0120832091D400309151
:100DA000D5003283218308950FB6F8940F922091D5
:100DB000D4003091D500DC0111964D915C911297D1
:100DC000E091CE00FC91FE1741F02417350728F082
:100DD000FB011182108281E010C0241B350BDB0166
:100DE0004D915C912417350798F7FB01421B530B7B
:100DF000518340830E94C90680E00F900FBE089582
:100E000081E08093CF0008958091C6009091C70043
:100E10000895E091C600F091C70084859585E09122
:100E2000C600F091C700A091C600B091C7005696C9
:100E30004C9128E030E0241B310935872487089540
:100E4000CF92DF92EF92FF920F931F93CF93DF9396
:100E5000F62E0FB6F8940F92E091C600F091C700FD
:100E6000C82FD0E08E01000F111F000F111FE00FDF
:100E7000F11F81A192A1A3A1B4A1892B8A2B8B2B55
:100E800081F4E091C600F091C700EC0FFD1F81E0F6
:100E900085A34115510529F0CA010E9493000E94C3
:100EA00077100F900FBE0FB6F8940F92E091C60026
:100EB000F091C700E00FF11F61A172A183A194A17D
:100EC0006115710581059105C9F02091C600309129
:100ED000C700F901E00FF11FFF2029F011A212A2B3
:100EE00013A214A20BC06B017C0121E0C21AD1082D
:100EF000E108F108C1A2D2A2E3A2F4A22091C600A7
:100F00003091C700C20FD31F1DA20F900FBEDF91FB
:100F1000CF911F910F91FF90EF90DF90CF900895A8
:100F20008F929F92AF92BF92CF92DF92EF92FF92F9
:100F30000F931F93CF93DF93480159010FB6F89495
:100F40000F92E091C600F091C700C82FD0E0EC0FDF
:100F5000FD1F85A1823059F1E091C600F091C700D4
:100F6000CE01880F991F880F991FE80FF91F81A1E3
:100F700092A1A3A1B4A14095509560957095482386
:100F800059236A237B2341A352A363A374A3E09153
:100F9000C600F091C700EC0FFD1F81E085A3C114CE
:100FA000D10429F0C6010E9493000E9477100F908F
:100FB0000FBE0FB6F8940F92E114F104A1F0E09186
:100FC000C600F091C700CE01880F991F880F991FA6
:100FD000E80FF91F81A192A1A3A1B4A1F701808319
:100FE0009183A283B383E091C600F091C700EC0F18
:100FF000FD1F85A18230E9F4E091C600F091C700A1
:10100000CE01880F991F880F991FE80FF91F81A142
:1010100092A1A3A1B4A180949094A094B0948822AA
:101020009922AA22BB2281A292A2A3A2B4A281E009
:1010300001C080E02091C6003091C700C20FD31FCD
:101040001DA20F900FBEDF91CF911F910F91FF90C6
:10105000EF90DF90CF90BF90AF909F908F900895CA
:101060008F929F92AF92BF92CF92DF92EF92FF92B8
:101070000F931F93CF93DF93DC010FB6F8940F9279
:1010800070E0E114F10481F0FB01EE0FFF1FEE0FA1
:10109000FF1FE80FF91F81A092A0A3A0B4A0E70151
:1010A00088829982AA82BB82FD01E60FF71F85A183
:1010B00092E095A302301105E9F0A8F40130110582
:1010C000D9F5660F771F660F771FFD01E60FF71F33
:1010D000C1A0D2A0E3A0F4A0BA01A9014C295D29C6
:1010E0006E297F2916C003301105D9F0043011058F
:1010F000A9F022C0660F771F660F771FFD01E60F6C
:10110000F71F41A152A163A174A14F5F5F4F6F4FC1
:101110007F4F41A352A363A374A30EC0823009F48E
:1011200072C0660F771F660F771FFD01E60FF71F6E
:1011300021A332A343A354A3813009F062C01A96BD
:10114000ED91FC911B9714968D919C911597169695
:101150002D913C911797EC013D832C831696CD91F0
:10116000DC9117979B838A839D012E5F3F4F81817E
:1011700092818217930711F4D283C1831B961C922C
:101180001E921A978081815080835696EC915697D3
:101190008091D3008E1710F4E093D30089E08E9FE6
:1011A000F0011124E050FF4F0180F281E02D1596EF
:1011B000FC93EE9314974481558117965C934E935C
:1011C0001697C481D5813B832A8335832483569621
:1011D000EC9156978E9FF0011124E050FF4F1B9623
:1011E000FC93EE931A9780818F5F8083E091C60015
:1011F000F091C70056969C918689891710F40E9439
:10120000771081E001C080E00F900FBEDF91CF9199
:101210001F910F91FF90EF90DF90CF90BF90AF9014
:101220009F908F9008958F929F92AF92BF92CF928E
:10123000DF92EF92FF920F931F93CF93DF93DC0126
:1012400070E0E114F10481F0FB01EE0FFF1FEE0FDF
:10125000FF1FE80FF91F81A092A0A3A0B4A0E7018F
:1012600088829982AA82BB82FD01E60FF71F85A1C1
:1012700092E095A302301105E9F0A8F401301105C0
:10128000D9F5660F771F660F771FFD01E60FF71F71
:1012900081A092A0A3A0B4A0BA01A901482959290C
:1012A0006A297B2916C003301105D9F004301105D5
:1012B000A9F022C0660F771F660F771FFD01E60FAA
:1012C000F71F41A152A163A174A14F5F5F4F6F4F00
:1012D0007F4F41A352A363A374A30EC0823009F4CD
:1012E000A0C0660F771F660F771FFD01E60FF71F7F
:1012F00021A332A343A354A3813011F081E092C013
:101300008091C800811158C01A96ED91FC911B97ED
:1013100014968D919C91159716962D913C91179747
:10132000EC013D832C831696CD91DC9117979B831E
:101330008A839D012E5F3F4F81819281821793079F
:1013400011F4D283C1831B961C921E921A9780813E
:10135000815080835696EC9156978091D3008E17DA
:1013600010F4E093D30089E08E9FF0011124E05047
:10137000FF4F0180F281E02D1596FC93EE931497B8
:101380004481558117965C934E931697C481D581FD
:101390003B832A83358324835696EC9156978E9F00
:1013A000F0011124E050FF4F1B96FC93EE931A9727
:1013B00080818F5F808321C0E091E200F091E300A3
:1013C0001F96FC93EE931E978481958151969C9372
:1013D0008E935097C481D581CD010C969B838A83CF
:1013E0009583848381EE90E055969C938E935497D9
:1013F0008091E1008F5F8093E100E091C600F09161
:10140000C70056969C918689891708F077CFC1143A
:10141000D10419F081E0F601808381E08093CF0050
:1014200001C080E0DF91CF911F910F91FF90EF906D
:10143000DF90CF90BF90AF909F908F9008950F93C3
:101440001F93CF93DF93FC01A62FB0E0EC01CA0FEE
:10145000DB1F8DA192E09DA3AA0FBB1FAA0FBB1F8C
:10146000AE0FBF1F91960D911D912D913C919497B8
:101470000F5F1F4F2F4F3F4F91960D931D932D934D
:101480003C939497813009F086C08091C800811107
:101490004FC0A285B3858481958126813781EC0177
:1014A0003D832C83C681D7819B838A839F012E5FD6
:1014B0003F4F11968D919C9112978217930721F4BB
:1014C0001296DC93CE931197138612868C918150DD
:1014D0008C93A6898091D3008A1710F4A093D3002F
:1014E00089E08A9FD0011124A050BF4F11960D9022
:1014F000BC91A02DB583A48314966D917C91159712
:10150000778366831496CD91DC9115973B832A836C
:1015100015963C932E931497A6898A9FD001112487
:10152000A050BF4FB387A2878C918F5F8C9321C04F
:10153000A091E200B091E300B787A68714968D9141
:101540009C911597918B808B1496CD91DC9115977A
:10155000CF010C969B838A8315969C938E93149748
:1015600081EE90E0958B848B8091E1008F5F80937A
:10157000E100A091C600B091C700968956968C9163
:10158000891748F44115510519F081E0FA0180836B
:1015900081E08093CF00DF91CF911F910F9108954B
:1015A000009721F48091C6009091C7000FB6F8947F
:1015B0000F92FC01E60FF11D85A1823019F415A2EE
:1015C00081E001C080E00F900FBE0895CF92DF92BE
:1015D000EF92FF920F931F93009721F48091C60022
:1015E0009091C7000FB6F8940F92FC0174E0679FCA
:1015F000E00DF11D112461A172A183A194A1C1A0EC
:10160000D2A0E3A0F4A089019A010095109520953D
:1016100030950C211D212E213F2101A312A323A3CC
:1016200034A30F900FBE1F910F91FF90EF90DF90AA
:10163000CF9008950FB6F8940F92FC01928D0F9001
:101640000FBE81E0911180E008950F931F93CF9317
:10165000DF93EC01042F1A8D4C8D4423B1F150E03F
:10166000011115C08A819B810E94E7132C8D8A810C
:101670009B81820F911D9B838A832C813D818217E0
:10168000930718F1888199819B838A831EC08E817C
:101690009F810E94E7138C8D90E09195819591092F
:1016A0002E813F81280F391F3F832E834881598126
:1016B0002417350730F42C813D81820F931F9F83BF
:1016C0008E83023011F4111111501F5F1A8F80E0C8
:1016D000DF91CF911F910F910895FC01CB01448DB3
:1016E0004423A1F050E026813781240F351F378332
:1016F0002683648175812617370720F02081318188
:1017000037832683668177810C94E7130895EF92DF
:10171000FF921F93CF93DF93EC010FB6F8940F92D3
:101720001E8D7C0181E1E80EF11C11165CF48989A3
:10173000882341F0C7010E947F0581110E940007A4
:101740001150F3CF8FEF8E8F0F900FBE0FB6F8941E
:101750000F921D8D7E0188E0E80EF11C11165CF4DD
:101760008885882341F0C7010E947F0581110E946E
:1017700000071150F3CF8FEF8D8F0F900FBEDF91C9
:10178000CF911F91FF90EF900895CF93DF93EC01DD
:10179000892B09F43EC09B8D992309F43AC07C8DB6
:1017A0000FB6F8940F92488159819A01979F200DA6
:1017B000311D11243D832C831A8E5B834A83892F2C
:1017C00090E00197789F9001799F300D1124CA0114
:1017D000820F931F9F838E838FEF8D8F8E8F61116A
:1017E0000CC08885882389F0CE0108960E947F0569
:1017F000882359F00E94771008C0CE0108960E94F5
:10180000460FCE0141960E94460F0F900FBE81E019
:1018100001C080E0DF91CF9108950F931F93CF9384
:10182000DF93811103C0C0E0D0E019C0162F082F4C
:10183000869FC00111244F960E942F11EC01009742
:1018400091F3111103C09983888303C04F96998344
:1018500088830B8F1C8F61E0CE010E94C50BCE01E7
:10186000DF91CF911F910F910895AF92BF92CF92C8
:10187000DF92FF920F931F93CF93DF9300D000D09E
:101880001F92CDB7DEB78C016B015D834C83F22EC6
:1018900080E0580198E0A90EB11C0FB6F8940F92A1
:1018A000F801228D938D291718F0F2E0FF1214C071
:1018B0004F2DB601C8010E94250BF801918999238B
:1018C00021F0C80141960E947F0581110E94771086
:1018D0000F900FBE81E050C02C813D81232B19F465
:1018E0000F900FBE48C0811104C0CE0101960E9426
:1018F000C9060F900FBE0E9497020FB6F8940F9280
:10190000F801858D8F3F09F4158EF801868D8F3F84
:1019100009F4168E0F900FBEBE016C5F7F4FCE0193
:1019200001960E94D406811121C00FB6F8940F923F
:10193000F801928D0F900FBE838D981311C06C81AA
:101940007D81C5010E942B05C8010E94870B0E9462
:10195000B803882311F081E0A0CF0E947710FBCF5D
:10196000C8010E94870B0E94B803F5CFC8010E94EE
:10197000870B0E94B80380E00F900F900F900F909C
:101980000F90DF91CF911F910F91FF90DF90CF903B
:10199000BF90AF900895EF92FF921F93CF93DF9384
:1019A000EC019A8D8B8D981710F0223009F57A0191
:1019B0001E8D8A8D422FCE010E94250B1F3F81F480
:1019C0008989882399F0CE0141960E947F0588235A
:1019D00069F0E114F10451F081E0F701808309C05E
:1019E0000E94AC02181710F41F5F1E8F81E001C027
:1019F00080E0DF91CF911F91FF90EF900895EF92DB
:101A0000FF921F93CF93DF93EC018A8D9B8D8917F3
:101A1000F0F47B011E8D8F5F8A8F1F3F81F48989CF
:101A2000882399F0CE0141960E947F05882369F0B2
:101A3000E114F10451F081E0F701808309C00E94B4
:101A4000AC02181710F41F5F1E8F81E001C080E008
:101A5000DF91CF911F91FF90EF900895AF92BF92C9
:101A6000CF92DF92FF920F931F93CF93DF9300D01B
:101A700000D01F92CDB7DEB78C016B015D834C8324
:101A800080E0580191E1A90EB11C0FB6F8940F92B5
:101A9000F801F28CFF20A9F0B601C8010E946D0B7D
:101AA000FA94F801F28E8085882339F0C8010896EF
:101AB0000E947F0581110E9477100F900FBE81E078
:101AC00050C02C813D81232B19F40F900FBE48C0CC
:101AD000811104C0CE0101960E94C9060F900FBE6D
:101AE0000E9497020FB6F8940F92F801858D8F3FF0
:101AF00009F4158EF801868D8F3F09F4168E0F902C
:101B00000FBEBE016C5F7F4FCE0101960E94D406CE
:101B100081111CC0C8010E941A0B882389F06C81B6
:101B20007D81C5010E942B05C8010E94870B0E9480
:101B3000B803882311F081E0A8CF0E947710FBCF73
:101B4000C8010E94870B0E94B803F5CFC8010E940C
:101B5000870B0E94B803C8010E941A0B882359F30F
:101B600080E00F900F900F900F900F90DF91CF912A
:101B70001F910F91FF90DF90CF90BF90AF9008958D
:101B8000EF92FF920F931F93CF93DF9300D000D07B
:101B90001F92CDB7DEB78C017D836C8390E0780116
:101BA00081E1E80EF11C0FB6F8940F92F801828DD6
:101BB000882381F08150828F8085882339F0C80185
:101BC00008960E947F0581110E9477100F900FBE2A
:101BD00081E050C02C813D81232B19F40F900FBE62
:101BE00048C0911104C0CE0101960E94C9060F9011
:101BF0000FBE0E9497020FB6F8940F92F801858DE0
:101C00008F3F09F4158EF801868D8F3F09F4168EEB
:101C10000F900FBEBE016C5F7F4FCE0101960E94F8
:101C2000D40681111CC0C8010E941A0B882389F0B8
:101C30006C817D81C7010E942B05C8010E94870B22
:101C40000E94B803882311F091E0ADCF0E94771075
:101C5000FBCFC8010E94870B0E94B803F5CFC801D3
:101C60000E94870B0E94B803C8010E941A0B8823A8
:101C700059F380E00F900F900F900F900F90DF912D
:101C8000CF911F910F91FF90EF900895CF92DF9227
:101C9000EF92FF920F931F93CF93DF9300D000D06A
:101CA0001F92CDB7DEB78C017B015D834C8380E052
:101CB000680191E1C90ED11C0FB6F8940F92F8019A
:101CC000928D9923B9F0C680D780B701C8010E94D0
:101CD0006D0BF801D782C6828189882339F0C8014B
:101CE00041960E947F0581110E9477100F900FBED0
:101CF00081E050C02C813D81232B19F40F900FBE41
:101D000048C0811104C0CE0101960E94C9060F90FF
:101D10000FBE0E9497020FB6F8940F92F801858DBE
:101D20008F3F09F4158EF801868D8F3F09F4168ECA
:101D30000F900FBEBE016C5F7F4FCE0101960E94D7
:101D4000D40681111CC0C8010E941A0B882389F097
:101D50006C817D81C6010E942B05C8010E94870B02
:101D60000E94B803882311F081E0A6CF0E9477106B
:101D7000FBCFC8010E94870B0E94B803F5CFC801B2
:101D80000E94870B0E94B803C8010E941A0B882387
:101D900059F380E00F900F900F900F900F90DF910C
:101DA000CF911F910F91FF90EF90DF90CF9008950A
:101DB000EF92FF920F931F93CF93DF93FC01028D5D
:101DC000002309F17A01EC01158D0E946D0B015081
:101DD0000A8F1F3F81F48885882399F0CE010896E9
:101DE0000E947F05882369F0E114F10451F081E03D
:101DF000F701808309C00E94AC02181710F41F5F1E
:101E00001D8F81E001C080E0DF91CF911F910F9184
:101E1000FF90EF9008950F931F93CF93DF93FC01F2
:101E2000228D222349F0EC01068117810E946D0B5F
:101E30001F830E8381E001C080E0DF91CF911F916D
:101E40000F9108950FB6F8940F92FC01828D0F90B8
:101E50000FBE08950FB6F8940F92FC01228D0F90DB
:101E60000FBE838D821B0895FC01828D08950C9412
:101E70006311FC01928D81E0911180E00895FC01D5
:101E8000928D81E0238D291380E00895FC01039653
:101E9000928381832FEF3FEF34832383968385835F
:101EA0009087878310820895FC011186108608951B
:101EB000CF93DF939C01FB01DC011196CD91DC9166
:101EC0001297D383C2838C819D81958384838C8177
:101ED0009D81DC0113967C936E9312977D836C83B6
:101EE00031872087F90180818F5F8083DF91CF91D7
:101EF00008950F931F93CF93DF938C01FB01808193
:101F000091818F3F2FEF920721F4E801AF81B885CF
:101F10000EC0D801139612962D913C911397E901AA
:101F2000488159818417950710F0D901F4CF129692
:101F30008D919C91139793838283EC01FD83EC83B5
:101F4000B583A4831396FC93EE93129711870087B1
:101F5000F80180818F5F8083DF91CF911F910F9176
:101F60000895CF93DF93FC01A085B1858281938191
:101F700024813581EC013D832C83C481D5819B83F1
:101F80008A8311968D919C911297E817F90721F495
:101F90001296DC93CE931197118610868C91815006
:101FA0008C938C91DF91CF91089531E1FC013083C6
:101FB000319722E220833197A3E3A0833197608396
:101FC0003197708331971082319760E86083319741
:101FD0001082319762E06083319763E060833197CC
:101FE00064E06083319765E06083319766E06083E9
:101FF000319767E06083319768E06083319769E0EB
:102000006083319760E1608331973083319732E1AB
:102010003083319733E13083319734E13083319726
:1020200035E13083319736E13083319737E13083C2
:10203000319738E13083319739E13083319730E29D
:102040003083319731E2308331972083319723E217
:1020500020833197408331975083319726E2208344
:10206000319727E22083319728E22083319729E2B4
:102070002083319720E32083319721E320838697C3
:1020800008951BBC8CE78ABD8BE08EBD89B780614B
:1020900089BFA091C600B091C700CD91CDBFDD91A1
:1020A000DEBFFF91EF91DF91CF91BF91AF919F91F3
:1020B0008F917F916F915F914F913F912F911F91E0
:1020C0000F91FF90EF90DF90CF90BF90AF909F90D7
:1020D0008F907F906F905F904F903F902F901F90C8
:1020E0000F900FBE0F90089581E0089508950F920C
:1020F0000FB6F8940F921F9211242F923F924F9295
:102100005F926F927F928F929F92AF92BF92CF9287
:10211000DF92EF92FF920F931F932F933F934F9372
:102120005F936F937F938F939F93AF93BF93CF935F
:10213000DF93EF93FF93A091C600B091C7000DB657
:102140000D920EB60D920E94E804A091C600B091C7
:10215000C700CD91CDBFDD91DEBFFF91EF91DF9143
:10216000CF91BF91AF919F918F917F916F915F912F
:102170004F913F912F911F910F91FF90EF90DF9022
:10218000CF90BF90AF909F908F907F906F905F9017
:102190004F903F902F901F900F900FBE0F9008957B
:1021A0000F920FB6F8940F921F9211242F923F9224
:1021B0004F925F926F927F928F929F92AF92BF9257
:1021C000CF92DF92EF92FF920F931F932F933F9343
:1021D0004F935F936F937F938F939F93AF93BF932F
:1021E000CF93DF93EF93FF93A091C600B091C70008
:1021F0000DB60D920EB60D920E94B70281110E948B
:10220000E804A091C600B091C700CD91CDBFDD918B
:10221000DEBFFF91EF91DF91CF91BF91AF919F9181
:102220008F917F916F915F914F913F912F911F916E
:102230000F91FF90EF90DF90CF90BF90AF909F9065
:102240008F907F906F905F904F903F902F901F9056
:102250000F900FBE0F9008950E94D0101895CF9345
:10226000DF93EC010E94970280914801909149010F
:10227000892B31F48CE491E09093490180934801DB
:102280002097C9F020914A0130914B01CE01820F75
:10229000931F8F3A44E0940770F42817390758F4D5
:1022A000C0914801D0914901C20FD31F90934B01B7
:1022B00080934A0102C0C0E0D0E00E94B803CE0182
:1022C000DF91CF910895089510924B0110924A0129
:1022D000089520914A0130914B018FEA94E0821BCE
:1022E000930B089541E062E080E00E94B81285E01F
:1022F0008A95F1F7000040E062E080E00C94B812AB
:10230000CF93C82F482F417060E081E00E94B8123F
:10231000C1FB442740F961E081E00E94B812C2FB92
:10232000442740F962E081E00E94B812C3FB4427D1
:1023300040F964E081E0CF910C94B812CF93C82F9C
:1023400082958F700E94801140E063E080E00E94DF
:10235000B8120E9472118FE891E00197F1F700C066
:1023600000008C2F8F700E9480110E9472118FE8E4
:1023700091E00197F1F700C00000CF91089541E08E
:1023800060E081E00E94741241E061E081E00E941F
:10239000741241E062E081E00E94741241E064E066
:1023A00081E00E94741241E063E080E00E947412B8
:1023B00041E062E080E00E94741240E062E080E070
:1023C0000E94B81283E30E949E1182E30E949E1134
:1023D00088E20E949E118EE00E949E1181E00E9480
:1023E0009E118FE39FE10197F1F700C0000086E0A6
:1023F0000C949E1181E00E949E1183E00E949E1128
:102400008FE39FE10197F1F700C000000895CF939B
:10241000C82F82958F700E94801141E063E080E0B8
:102420000E94B8120E9472118FE891E00197F1F7B3
:1024300000C000008C2F8F700E9480110E947211CA
:102440008FE891E00197F1F700C00000CF91089567
:10245000CF93DF93EC018991882319F00E94071232
:10246000FACFDF91CF91089580EC0C949E118150AA
:10247000860F0C949E1161E082E00C942C130C9456
:102480003B12CF93DF93CDB7DEB72A970FB6F89400
:10249000DEBF0FBECDBF9AE0E1E6F0E0DE011196AF
:1024A00001900D929A95E1F7E1E0F0E0EC0FFD1F4D
:1024B000E80FF11D608182E02A960FB6F894DEBF26
:1024C0000FBECDBFDF91CF910C9450130C944112ED
:1024D000F8940895789408958FB78F778FBF0895F3
:1024E0008FB780688FBF08958130A9F028F08230BF
:1024F00009F1833071F108952AB381E090E001C0C1
:10250000880F6A95EAF7411103C08095822301C0C4
:10251000822B8ABB089527B381E090E001C0880F29
:102520006A95EAF7411103C08095822301C0822B8E
:1025300087BB089524B381E090E001C0880F6A95BD
:10254000EAF7411103C08095822301C0822B84BB2E
:10255000089521B381E090E001C0880F6A95EAF701
:10256000411103C08095822301C0822B81BB089555
:102570008130A9F028F0823009F1833071F108959B
:102580002BB381E090E001C0880F6A95EAF7411112
:1025900003C08095822301C0822B8BBB089528B392
:1025A00081E090E001C0880F6A95EAF7411103C00D
:1025B0008095822301C0822B88BB089525B381E0DA
:1025C00090E001C0880F6A95EAF7411103C0809539
:1025D000822301C0822B85BB089522B381E090E065
:1025E00001C0880F6A95EAF7411103C080958223E4
:1025F00001C0822B82BB0895813081F028F08230A7
:10260000B9F08330F9F008952BB381E090E001C078
:10261000880F6A95EAF782278BBB089528B381E07B
:1026200090E001C0880F6A95EAF7822788BB089579
:1026300025B381E090E001C0880F6A95EAF7822710
:1026400085BB089522B381E090E001C0880F6A95B0
:10265000EAF7822782BB0895813069F028F0823042
:1026600089F08330B1F00895611102C01ABA08955B
:102670008FEF8ABB0895611102C017BA08958FEFDA
:1026800087BB0895611102C014BA08958FEF84BB0F
:102690000895611102C011BA08958FEF81BB0895AA
:1026A000813041F028F0823039F0833039F00895DC
:1026B0006BBB089568BB089565BB089562BB089520
:1026C000813049F030F0823041F08330C1F420B3E2
:1026D00005C029B303C026B301C023B381E090E055
:1026E000062E02C0880F991F0A94E2F730E0822379
:1026F000932302C0959587956A95E2F7089580E047
:102700000895813051F028F0823059F0833069F01B
:1027100008958BB380958BBB089588B3809588BB53
:10272000089585B3809585BB089582B3809582BB5B
:102730000895813049F030F0823041F0833041F427
:1027400080B3089589B3089586B3089583B3089537
:1027500080E0089541E065E080E00E9474120E94EC
:10276000BF110E943F120E943B1243E060E081E0F3
:102770000E940D0C9093C5008093C400E12CF12CB5
:1027800002E020E030E040E850E066E970E089E4F3
:1027900090E00E94FB00813021F08FE990E00E94E0
:1027A0002812E12CF12C02E020E030E040E850E07B
:1027B0006AEA70E082E690E00E94FB00813021F03E
:1027C00084EB90E00E9428120E946902FFCFFB0177
:1027D000DC0102C001900D9241505040D8F708959D
:0427E000F894FFCF9B
:1027E40007C0F9A4B0999282F8809063636363632D
:1027F400636363636363636363636363632031007D
:102804004B4B4B4B4B4B4B4B4B4B4B4B4B4B4B4B14
:102814004B4B4B2032006C65645F7461736B0046F4
:1028240061696C656420207431006C63645F746159
:10283400736B32004661696C656420207432004910
:04284400444C4500BB
:00000001FF
